{
    "_format": "hh-sol-artifact-1",
    "contractName": "Domains",
    "sourceName": "contracts/Domains.sol",
    "abi": [
        {
            "inputs": [
                {
                    "internalType": "string",
                    "name": "_tld",
                    "type": "string"
                }
            ],
            "stateMutability": "payable",
            "type": "constructor"
        },
        {
            "anonymous": false,
            "inputs": [
                {
                    "indexed": true,
                    "internalType": "address",
                    "name": "owner",
                    "type": "address"
                },
                {
                    "indexed": true,
                    "internalType": "address",
                    "name": "approved",
                    "type": "address"
                },
                {
                    "indexed": true,
                    "internalType": "uint256",
                    "name": "tokenId",
                    "type": "uint256"
                }
            ],
            "name": "Approval",
            "type": "event"
        },
        {
            "anonymous": false,
            "inputs": [
                {
                    "indexed": true,
                    "internalType": "address",
                    "name": "owner",
                    "type": "address"
                },
                {
                    "indexed": true,
                    "internalType": "address",
                    "name": "operator",
                    "type": "address"
                },
                {
                    "indexed": false,
                    "internalType": "bool",
                    "name": "approved",
                    "type": "bool"
                }
            ],
            "name": "ApprovalForAll",
            "type": "event"
        },
        {
            "anonymous": false,
            "inputs": [
                {
                    "indexed": true,
                    "internalType": "address",
                    "name": "from",
                    "type": "address"
                },
                {
                    "indexed": true,
                    "internalType": "address",
                    "name": "to",
                    "type": "address"
                },
                {
                    "indexed": true,
                    "internalType": "uint256",
                    "name": "tokenId",
                    "type": "uint256"
                }
            ],
            "name": "Transfer",
            "type": "event"
        },
        {
            "inputs": [
                {
                    "internalType": "address",
                    "name": "to",
                    "type": "address"
                },
                {
                    "internalType": "uint256",
                    "name": "tokenId",
                    "type": "uint256"
                }
            ],
            "name": "approve",
            "outputs": [],
            "stateMutability": "nonpayable",
            "type": "function"
        },
        {
            "inputs": [
                {
                    "internalType": "address",
                    "name": "owner",
                    "type": "address"
                }
            ],
            "name": "balanceOf",
            "outputs": [
                {
                    "internalType": "uint256",
                    "name": "",
                    "type": "uint256"
                }
            ],
            "stateMutability": "view",
            "type": "function"
        },
        {
            "inputs": [
                {
                    "internalType": "string",
                    "name": "_name",
                    "type": "string"
                }
            ],
            "name": "getAddress",
            "outputs": [
                {
                    "internalType": "address",
                    "name": "",
                    "type": "address"
                }
            ],
            "stateMutability": "view",
            "type": "function"
        },
        {
            "inputs": [
                {
                    "internalType": "uint256",
                    "name": "tokenId",
                    "type": "uint256"
                }
            ],
            "name": "getApproved",
            "outputs": [
                {
                    "internalType": "address",
                    "name": "",
                    "type": "address"
                }
            ],
            "stateMutability": "view",
            "type": "function"
        },
        {
            "inputs": [
                {
                    "internalType": "string",
                    "name": "_name",
                    "type": "string"
                }
            ],
            "name": "getNftId",
            "outputs": [
                {
                    "internalType": "uint256",
                    "name": "",
                    "type": "uint256"
                }
            ],
            "stateMutability": "view",
            "type": "function"
        },
        {
            "inputs": [
                {
                    "internalType": "string",
                    "name": "_name",
                    "type": "string"
                }
            ],
            "name": "getRecord",
            "outputs": [
                {
                    "components": [
                        {
                            "internalType": "string",
                            "name": "nickname",
                            "type": "string"
                        },
                        {
                            "internalType": "string",
                            "name": "spotifyLink",
                            "type": "string"
                        },
                        {
                            "internalType": "string",
                            "name": "twitter",
                            "type": "string"
                        }
                    ],
                    "internalType": "struct Domains.Record",
                    "name": "",
                    "type": "tuple"
                }
            ],
            "stateMutability": "view",
            "type": "function"
        },
        {
            "inputs": [
                {
                    "internalType": "address",
                    "name": "owner",
                    "type": "address"
                },
                {
                    "internalType": "address",
                    "name": "operator",
                    "type": "address"
                }
            ],
            "name": "isApprovedForAll",
            "outputs": [
                {
                    "internalType": "bool",
                    "name": "",
                    "type": "bool"
                }
            ],
            "stateMutability": "view",
            "type": "function"
        },
        {
            "inputs": [],
            "name": "name",
            "outputs": [
                {
                    "internalType": "string",
                    "name": "",
                    "type": "string"
                }
            ],
            "stateMutability": "view",
            "type": "function"
        },
        {
            "inputs": [
                {
                    "internalType": "uint256",
                    "name": "tokenId",
                    "type": "uint256"
                }
            ],
            "name": "ownerOf",
            "outputs": [
                {
                    "internalType": "address",
                    "name": "",
                    "type": "address"
                }
            ],
            "stateMutability": "view",
            "type": "function"
        },
        {
            "inputs": [
                {
                    "internalType": "string",
                    "name": "name",
                    "type": "string"
                }
            ],
            "name": "price",
            "outputs": [
                {
                    "internalType": "uint256",
                    "name": "",
                    "type": "uint256"
                }
            ],
            "stateMutability": "pure",
            "type": "function"
        },
        {
            "inputs": [
                {
                    "internalType": "string",
                    "name": "_name",
                    "type": "string"
                }
            ],
            "name": "register",
            "outputs": [],
            "stateMutability": "payable",
            "type": "function"
        },
        {
            "inputs": [
                {
                    "internalType": "address",
                    "name": "from",
                    "type": "address"
                },
                {
                    "internalType": "address",
                    "name": "to",
                    "type": "address"
                },
                {
                    "internalType": "uint256",
                    "name": "tokenId",
                    "type": "uint256"
                }
            ],
            "name": "safeTransferFrom",
            "outputs": [],
            "stateMutability": "nonpayable",
            "type": "function"
        },
        {
            "inputs": [
                {
                    "internalType": "address",
                    "name": "from",
                    "type": "address"
                },
                {
                    "internalType": "address",
                    "name": "to",
                    "type": "address"
                },
                {
                    "internalType": "uint256",
                    "name": "tokenId",
                    "type": "uint256"
                },
                {
                    "internalType": "bytes",
                    "name": "_data",
                    "type": "bytes"
                }
            ],
            "name": "safeTransferFrom",
            "outputs": [],
            "stateMutability": "nonpayable",
            "type": "function"
        },
        {
            "inputs": [
                {
                    "internalType": "string",
                    "name": "_name",
                    "type": "string"
                },
                {
                    "internalType": "string",
                    "name": "_nickname",
                    "type": "string"
                },
                {
                    "internalType": "string",
                    "name": "_spotifyLink",
                    "type": "string"
                },
                {
                    "internalType": "string",
                    "name": "_twitter",
                    "type": "string"
                }
            ],
            "name": "setAllRecords",
            "outputs": [],
            "stateMutability": "nonpayable",
            "type": "function"
        },
        {
            "inputs": [
                {
                    "internalType": "address",
                    "name": "operator",
                    "type": "address"
                },
                {
                    "internalType": "bool",
                    "name": "approved",
                    "type": "bool"
                }
            ],
            "name": "setApprovalForAll",
            "outputs": [],
            "stateMutability": "nonpayable",
            "type": "function"
        },
        {
            "inputs": [
                {
                    "internalType": "string",
                    "name": "_name",
                    "type": "string"
                },
                {
                    "internalType": "string",
                    "name": "_nickname",
                    "type": "string"
                }
            ],
            "name": "setNickname",
            "outputs": [],
            "stateMutability": "nonpayable",
            "type": "function"
        },
        {
            "inputs": [
                {
                    "internalType": "string",
                    "name": "_name",
                    "type": "string"
                },
                {
                    "internalType": "string",
                    "name": "_spotifyLink",
                    "type": "string"
                }
            ],
            "name": "setSpotifyLink",
            "outputs": [],
            "stateMutability": "nonpayable",
            "type": "function"
        },
        {
            "inputs": [
                {
                    "internalType": "string",
                    "name": "_name",
                    "type": "string"
                },
                {
                    "internalType": "string",
                    "name": "_twitter",
                    "type": "string"
                }
            ],
            "name": "setTwitter",
            "outputs": [],
            "stateMutability": "nonpayable",
            "type": "function"
        },
        {
            "inputs": [
                {
                    "internalType": "bytes4",
                    "name": "interfaceId",
                    "type": "bytes4"
                }
            ],
            "name": "supportsInterface",
            "outputs": [
                {
                    "internalType": "bool",
                    "name": "",
                    "type": "bool"
                }
            ],
            "stateMutability": "view",
            "type": "function"
        },
        {
            "inputs": [],
            "name": "symbol",
            "outputs": [
                {
                    "internalType": "string",
                    "name": "",
                    "type": "string"
                }
            ],
            "stateMutability": "view",
            "type": "function"
        },
        {
            "inputs": [],
            "name": "tld",
            "outputs": [
                {
                    "internalType": "string",
                    "name": "",
                    "type": "string"
                }
            ],
            "stateMutability": "view",
            "type": "function"
        },
        {
            "inputs": [
                {
                    "internalType": "uint256",
                    "name": "tokenId",
                    "type": "uint256"
                }
            ],
            "name": "tokenURI",
            "outputs": [
                {
                    "internalType": "string",
                    "name": "",
                    "type": "string"
                }
            ],
            "stateMutability": "view",
            "type": "function"
        },
        {
            "inputs": [
                {
                    "internalType": "address",
                    "name": "from",
                    "type": "address"
                },
                {
                    "internalType": "address",
                    "name": "to",
                    "type": "address"
                },
                {
                    "internalType": "uint256",
                    "name": "tokenId",
                    "type": "uint256"
                }
            ],
            "name": "transferFrom",
            "outputs": [],
            "stateMutability": "nonpayable",
            "type": "function"
        }
    ],
    "bytecode": "0x608060405260405180610c400160405280610c08815260200162005535610c08913960099080519060200190620000389291906200026b565b506040518060400160405280600d81526020017f3c2f746578743e3c2f7376673e00000000000000000000000000000000000000815250600a9080519060200190620000869291906200026b565b5060405162006161380380620061618339818101604052810190620000ac9190620004b8565b6040518060400160405280601181526020017f49626973204e616d6520536572766963650000000000000000000000000000008152506040518060400160405280600381526020017f494e5300000000000000000000000000000000000000000000000000000000008152508160009080519060200190620001309291906200026b565b508060019080519060200190620001499291906200026b565b5050508060079080519060200190620001649291906200026b565b50620001956040518060600160405280602481526020016200613d60249139826200019c60201b62001d641760201c565b5062000606565b6200023e8282604051602401620001b592919062000566565b6040516020818303038152906040527f4b5c4277000000000000000000000000000000000000000000000000000000007bffffffffffffffffffffffffffffffffffffffffffffffffffffffff19166020820180517bffffffffffffffffffffffffffffffffffffffffffffffffffffffff83818316178352505050506200024260201b60201c565b5050565b60008151905060006a636f6e736f6c652e6c6f679050602083016000808483855afa5050505050565b8280546200027990620005d0565b90600052602060002090601f0160209004810192826200029d5760008555620002e9565b82601f10620002b857805160ff1916838001178555620002e9565b82800160010185558215620002e9579182015b82811115620002e8578251825591602001919060010190620002cb565b5b509050620002f89190620002fc565b5090565b5b8082111562000317576000816000905550600101620002fd565b5090565b6000604051905090565b600080fd5b600080fd5b600080fd5b600080fd5b6000601f19601f8301169050919050565b7f4e487b7100000000000000000000000000000000000000000000000000000000600052604160045260246000fd5b620003848262000339565b810181811067ffffffffffffffff82111715620003a657620003a56200034a565b5b80604052505050565b6000620003bb6200031b565b9050620003c9828262000379565b919050565b600067ffffffffffffffff821115620003ec57620003eb6200034a565b5b620003f78262000339565b9050602081019050919050565b60005b838110156200042457808201518184015260208101905062000407565b8381111562000434576000848401525b50505050565b6000620004516200044b84620003ce565b620003af565b90508281526020810184848401111562000470576200046f62000334565b5b6200047d84828562000404565b509392505050565b600082601f8301126200049d576200049c6200032f565b5b8151620004af8482602086016200043a565b91505092915050565b600060208284031215620004d157620004d062000325565b5b600082015167ffffffffffffffff811115620004f257620004f16200032a565b5b620005008482850162000485565b91505092915050565b600081519050919050565b600082825260208201905092915050565b6000620005328262000509565b6200053e818562000514565b93506200055081856020860162000404565b6200055b8162000339565b840191505092915050565b6000604082019050818103600083015262000582818562000525565b9050818103602083015262000598818462000525565b90509392505050565b7f4e487b7100000000000000000000000000000000000000000000000000000000600052602260045260246000fd5b60006002820490506001821680620005e957607f821691505b602082108114156200060057620005ff620005a1565b5b50919050565b614f1f80620006166000396000f3fe6080604052600436106101405760003560e01c80636352211e116100b6578063b88d4fde1161006f578063b88d4fde1461047c578063bf40fac1146104a5578063c87b56dd146104e2578063e985e9c51461051f578063f2c298be1461055c578063fe2c61981461057857610140565b80636352211e1461035c57806370a082311461039957806375656219146103d657806395d89b41146103ff578063a22cb4651461042a578063ae11ca441461045357610140565b80631ecdc4d8116101085780631ecdc4d81461025057806323b872dd146102795780632d551432146102a25780633b6e1c97146102cd57806342842e0e146102f65780634b0b49501461031f57610140565b806301ffc9a71461014557806306fdde0314610182578063081812fc146101ad578063095ea7b3146101ea57806311dd884514610213575b600080fd5b34801561015157600080fd5b5061016c6004803603810190610167919061326a565b6105b5565b60405161017991906132b2565b60405180910390f35b34801561018e57600080fd5b50610197610697565b6040516101a49190613366565b60405180910390f35b3480156101b957600080fd5b506101d460048036038101906101cf91906133be565b610729565b6040516101e1919061342c565b60405180910390f35b3480156101f657600080fd5b50610211600480360381019061020c9190613473565b6107ae565b005b34801561021f57600080fd5b5061023a60048036038101906102359190613518565b6108c6565b604051610247919061360d565b60405180910390f35b34801561025c57600080fd5b506102776004803603810190610272919061362f565b610ab7565b005b34801561028557600080fd5b506102a0600480360381019061029b91906136b0565b610c49565b005b3480156102ae57600080fd5b506102b7610ca9565b6040516102c49190613366565b60405180910390f35b3480156102d957600080fd5b506102f460048036038101906102ef919061362f565b610d37565b005b34801561030257600080fd5b5061031d600480360381019061031891906136b0565b610ec9565b005b34801561032b57600080fd5b5061034660048036038101906103419190613518565b610ee9565b6040516103539190613712565b60405180910390f35b34801561036857600080fd5b50610383600480360381019061037e91906133be565b610f14565b604051610390919061342c565b60405180910390f35b3480156103a557600080fd5b506103c060048036038101906103bb919061372d565b610fc6565b6040516103cd9190613712565b60405180910390f35b3480156103e257600080fd5b506103fd60048036038101906103f8919061362f565b61107e565b005b34801561040b57600080fd5b50610414611210565b6040516104219190613366565b60405180910390f35b34801561043657600080fd5b50610451600480360381019061044c9190613786565b6112a2565b005b34801561045f57600080fd5b5061047a600480360381019061047591906137c6565b6112b8565b005b34801561048857600080fd5b506104a3600480360381019061049e91906139df565b61160a565b005b3480156104b157600080fd5b506104cc60048036038101906104c79190613518565b61166c565b6040516104d9919061342c565b60405180910390f35b3480156104ee57600080fd5b50610509600480360381019061050491906133be565b6116b7565b6040516105169190613366565b60405180910390f35b34801561052b57600080fd5b5061054660048036038101906105419190613a62565b611809565b60405161055391906132b2565b60405180910390f35b61057660048036038101906105719190613518565b61189d565b005b34801561058457600080fd5b5061059f600480360381019061059a9190613518565b611c89565b6040516105ac9190613712565b60405180910390f35b60007f80ac58cd000000000000000000000000000000000000000000000000000000007bffffffffffffffffffffffffffffffffffffffffffffffffffffffff1916827bffffffffffffffffffffffffffffffffffffffffffffffffffffffff1916148061068057507f5b5e139f000000000000000000000000000000000000000000000000000000007bffffffffffffffffffffffffffffffffffffffffffffffffffffffff1916827bffffffffffffffffffffffffffffffffffffffffffffffffffffffff1916145b80610690575061068f82611e00565b5b9050919050565b6060600080546106a690613ad1565b80601f01602080910402602001604051908101604052809291908181526020018280546106d290613ad1565b801561071f5780601f106106f45761010080835404028352916020019161071f565b820191906000526020600020905b81548152906001019060200180831161070257829003601f168201915b5050505050905090565b600061073482611e6a565b610773576040517f08c379a000000000000000000000000000000000000000000000000000000000815260040161076a90613b75565b60405180910390fd5b6004600083815260200190815260200160002060009054906101000a900473ffffffffffffffffffffffffffffffffffffffff169050919050565b60006107b982610f14565b90508073ffffffffffffffffffffffffffffffffffffffff168373ffffffffffffffffffffffffffffffffffffffff16141561082a576040517f08c379a000000000000000000000000000000000000000000000000000000000815260040161082190613c07565b60405180910390fd5b8073ffffffffffffffffffffffffffffffffffffffff16610849611ed6565b73ffffffffffffffffffffffffffffffffffffffff161480610878575061087781610872611ed6565b611809565b5b6108b7576040517f08c379a00000000000000000000000000000000000000000000000000000000081526004016108ae90613c99565b60405180910390fd5b6108c18383611ede565b505050565b6108ce6130b4565b600c83836040516108e0929190613ce9565b908152602001604051809103902060405180606001604052908160008201805461090990613ad1565b80601f016020809104026020016040519081016040528092919081815260200182805461093590613ad1565b80156109825780601f1061095757610100808354040283529160200191610982565b820191906000526020600020905b81548152906001019060200180831161096557829003601f168201915b5050505050815260200160018201805461099b90613ad1565b80601f01602080910402602001604051908101604052809291908181526020018280546109c790613ad1565b8015610a145780601f106109e957610100808354040283529160200191610a14565b820191906000526020600020905b8154815290600101906020018083116109f757829003601f168201915b50505050508152602001600282018054610a2d90613ad1565b80601f0160208091040260200160405190810160405280929190818152602001828054610a5990613ad1565b8015610aa65780601f10610a7b57610100808354040283529160200191610aa6565b820191906000526020600020905b815481529060010190602001808311610a8957829003601f168201915b505050505081525050905092915050565b3373ffffffffffffffffffffffffffffffffffffffff16600b8585604051610ae0929190613ce9565b908152602001604051809103902060009054906101000a900473ffffffffffffffffffffffffffffffffffffffff1673ffffffffffffffffffffffffffffffffffffffff1614610b65576040517f08c379a0000000000000000000000000000000000000000000000000000000008152600401610b5c90613d74565b60405180910390fd5b8181600c8686604051610b79929190613ce9565b90815260200160405180910390206001019190610b979291906130d5565b50610c436040518060600160405280602f8152602001614dbd602f913983838080601f016020809104026020016040519081016040528093929190818152602001838380828437600081840152601f19601f8201169050808301925050505050505086868080601f016020809104026020016040519081016040528093929190818152602001838380828437600081840152601f19601f82011690508083019250505050505050611f97565b50505050565b610c5a610c54611ed6565b82612036565b610c99576040517f08c379a0000000000000000000000000000000000000000000000000000000008152600401610c9090613e06565b60405180910390fd5b610ca4838383612114565b505050565b60078054610cb690613ad1565b80601f0160208091040260200160405190810160405280929190818152602001828054610ce290613ad1565b8015610d2f5780601f10610d0457610100808354040283529160200191610d2f565b820191906000526020600020905b815481529060010190602001808311610d1257829003601f168201915b505050505081565b3373ffffffffffffffffffffffffffffffffffffffff16600b8585604051610d60929190613ce9565b908152602001604051809103902060009054906101000a900473ffffffffffffffffffffffffffffffffffffffff1673ffffffffffffffffffffffffffffffffffffffff1614610de5576040517f08c379a0000000000000000000000000000000000000000000000000000000008152600401610ddc90613d74565b60405180910390fd5b8181600c8686604051610df9929190613ce9565b90815260200160405180910390206002019190610e179291906130d5565b50610ec36040518060600160405280602a8152602001614e95602a913983838080601f016020809104026020016040519081016040528093929190818152602001838380828437600081840152601f19601f8201169050808301925050505050505086868080601f016020809104026020016040519081016040528093929190818152602001838380828437600081840152601f19601f82011690508083019250505050505050611f97565b50505050565b610ee48383836040518060200160405280600081525061160a565b505050565b6000600d8383604051610efd929190613ce9565b908152602001604051809103902054905092915050565b6000806002600084815260200190815260200160002060009054906101000a900473ffffffffffffffffffffffffffffffffffffffff169050600073ffffffffffffffffffffffffffffffffffffffff168173ffffffffffffffffffffffffffffffffffffffff161415610fbd576040517f08c379a0000000000000000000000000000000000000000000000000000000008152600401610fb490613e98565b60405180910390fd5b80915050919050565b60008073ffffffffffffffffffffffffffffffffffffffff168273ffffffffffffffffffffffffffffffffffffffff161415611037576040517f08c379a000000000000000000000000000000000000000000000000000000000815260040161102e90613f2a565b60405180910390fd5b600360008373ffffffffffffffffffffffffffffffffffffffff1673ffffffffffffffffffffffffffffffffffffffff168152602001908152602001600020549050919050565b3373ffffffffffffffffffffffffffffffffffffffff16600b85856040516110a7929190613ce9565b908152602001604051809103902060009054906101000a900473ffffffffffffffffffffffffffffffffffffffff1673ffffffffffffffffffffffffffffffffffffffff161461112c576040517f08c379a000000000000000000000000000000000000000000000000000000000815260040161112390613d74565b60405180910390fd5b8181600c8686604051611140929190613ce9565b9081526020016040518091039020600001919061115e9291906130d5565b5061120a6040518060600160405280602b8152602001614ebf602b913983838080601f016020809104026020016040519081016040528093929190818152602001838380828437600081840152601f19601f8201169050808301925050505050505086868080601f016020809104026020016040519081016040528093929190818152602001838380828437600081840152601f19601f82011690508083019250505050505050611f97565b50505050565b60606001805461121f90613ad1565b80601f016020809104026020016040519081016040528092919081815260200182805461124b90613ad1565b80156112985780601f1061126d57610100808354040283529160200191611298565b820191906000526020600020905b81548152906001019060200180831161127b57829003601f168201915b5050505050905090565b6112b46112ad611ed6565b838361237b565b5050565b3373ffffffffffffffffffffffffffffffffffffffff16600b89896040516112e1929190613ce9565b908152602001604051809103902060009054906101000a900473ffffffffffffffffffffffffffffffffffffffff1673ffffffffffffffffffffffffffffffffffffffff1614611366576040517f08c379a000000000000000000000000000000000000000000000000000000000815260040161135d90613d74565b60405180910390fd5b8585600c8a8a60405161137a929190613ce9565b908152602001604051809103902060000191906113989291906130d5565b508383600c8a8a6040516113ad929190613ce9565b908152602001604051809103902060010191906113cb9291906130d5565b508181600c8a8a6040516113e0929190613ce9565b908152602001604051809103902060020191906113fe9291906130d5565b506114aa6040518060600160405280602b8152602001614ebf602b913987878080601f016020809104026020016040519081016040528093929190818152602001838380828437600081840152601f19601f820116905080830192505050505050508a8a8080601f016020809104026020016040519081016040528093929190818152602001838380828437600081840152601f19601f82011690508083019250505050505050611f97565b6115556040518060600160405280602f8152602001614dbd602f913985858080601f016020809104026020016040519081016040528093929190818152602001838380828437600081840152601f19601f820116905080830192505050505050508a8a8080601f016020809104026020016040519081016040528093929190818152602001838380828437600081840152601f19601f82011690508083019250505050505050611f97565b6116006040518060600160405280602a8152602001614e95602a913983838080601f016020809104026020016040519081016040528093929190818152602001838380828437600081840152601f19601f820116905080830192505050505050508a8a8080601f016020809104026020016040519081016040528093929190818152602001838380828437600081840152601f19601f82011690508083019250505050505050611f97565b5050505050505050565b61161b611615611ed6565b83612036565b61165a576040517f08c379a000000000000000000000000000000000000000000000000000000000815260040161165190613e06565b60405180910390fd5b611666848484846124e8565b50505050565b6000600b8383604051611680929190613ce9565b908152602001604051809103902060009054906101000a900473ffffffffffffffffffffffffffffffffffffffff16905092915050565b60606116c282611e6a565b611701576040517f08c379a00000000000000000000000000000000000000000000000000000000081526004016116f890613fbc565b60405180910390fd5b600060066000848152602001908152602001600020805461172190613ad1565b80601f016020809104026020016040519081016040528092919081815260200182805461174d90613ad1565b801561179a5780601f1061176f5761010080835404028352916020019161179a565b820191906000526020600020905b81548152906001019060200180831161177d57829003601f168201915b5050505050905060006117ab612544565b90506000815114156117c1578192505050611804565b6000825111156117f65780826040516020016117de92919061400d565b60405160208183030381529060405292505050611804565b6117ff8461255b565b925050505b919050565b6000600560008473ffffffffffffffffffffffffffffffffffffffff1673ffffffffffffffffffffffffffffffffffffffff16815260200190815260200160002060008373ffffffffffffffffffffffffffffffffffffffff1673ffffffffffffffffffffffffffffffffffffffff16815260200190815260200160002060009054906101000a900460ff16905092915050565b600073ffffffffffffffffffffffffffffffffffffffff16600b83836040516118c7929190613ce9565b908152602001604051809103902060009054906101000a900473ffffffffffffffffffffffffffffffffffffffff1673ffffffffffffffffffffffffffffffffffffffff161461194c576040517f08c379a00000000000000000000000000000000000000000000000000000000081526004016119439061407d565b60405180910390fd5b60006119588383611c89565b90508034101561199d576040517f08c379a0000000000000000000000000000000000000000000000000000000008152600401611994906140e9565b60405180910390fd5b6119a76008612602565b6000838360076040516020016119bf939291906141e9565b60405160208183030381529060405290506000600982600a6040516020016119e99392919061421a565b60405160208183030381529060405290506000611a066008612618565b90506000611a1384612626565b90506000611a20826127db565b90506000611a5886611a318761293c565b84604051602001611a44939291906143c7565b60405160208183030381529060405261293c565b9050600081604051602001611a6d9190614470565b6040516020818303038152906040529050611a9f604051806060016040528060398152602001614d8460399139612ad4565b611ade6040518060400160405280600e81526020017f46696e616c20746f6b656e55524900000000000000000000000000000000000081525082611d64565b611aff604051806060016040528060398152602001614dec60399139612ad4565b611b093386612b6d565b611b138582612b8b565b33600b8b8b604051611b26929190613ce9565b908152602001604051809103902060006101000a81548173ffffffffffffffffffffffffffffffffffffffff021916908373ffffffffffffffffffffffffffffffffffffffff160217905550604051806060016040528060405180602001604052806000815250815260200160405180602001604052806000815250815260200160405180602001604052806000815250815250600c8b8b604051611bcc929190613ce9565b90815260200160405180910390206000820151816000019080519060200190611bf692919061315b565b506020820151816001019080519060200190611c1392919061315b565b506040820151816002019080519060200190611c3092919061315b565b5090505084600d8b8b604051611c47929190613ce9565b908152602001604051809103902081905550611c7d604051806060016040528060308152602001614e2560309139338988612bff565b50505050505050505050565b600080611cd984848080601f016020809104026020016040519081016040528093929190818152602001838380828437600081840152601f19601f82011690508083019250505050505050612626565b905060008111611d1e576040517f08c379a0000000000000000000000000000000000000000000000000000000008152600401611d15906144de565b60405180910390fd5b60038111611d37576706f05b59d3b20000915050611d5e565b6004811415611d5157670429d069189e0000915050611d5e565b67016345785d8a00009150505b92915050565b611dfc8282604051602401611d7a9291906144fe565b6040516020818303038152906040527f4b5c4277000000000000000000000000000000000000000000000000000000007bffffffffffffffffffffffffffffffffffffffffffffffffffffffff19166020820180517bffffffffffffffffffffffffffffffffffffffffffffffffffffffff8381831617835250505050612ca1565b5050565b60007f01ffc9a7000000000000000000000000000000000000000000000000000000007bffffffffffffffffffffffffffffffffffffffffffffffffffffffff1916827bffffffffffffffffffffffffffffffffffffffffffffffffffffffff1916149050919050565b60008073ffffffffffffffffffffffffffffffffffffffff166002600084815260200190815260200160002060009054906101000a900473ffffffffffffffffffffffffffffffffffffffff1673ffffffffffffffffffffffffffffffffffffffff1614159050919050565b600033905090565b816004600083815260200190815260200160002060006101000a81548173ffffffffffffffffffffffffffffffffffffffff021916908373ffffffffffffffffffffffffffffffffffffffff160217905550808273ffffffffffffffffffffffffffffffffffffffff16611f5183610f14565b73ffffffffffffffffffffffffffffffffffffffff167f8c5be1e5ebec7d5bd14f71427d1e84f3dd0314c0f7b2291e5b200ac8c7c3b92560405160405180910390a45050565b612031838383604051602401611faf93929190614535565b6040516020818303038152906040527f2ced7cef000000000000000000000000000000000000000000000000000000007bffffffffffffffffffffffffffffffffffffffffffffffffffffffff19166020820180517bffffffffffffffffffffffffffffffffffffffffffffffffffffffff8381831617835250505050612ca1565b505050565b600061204182611e6a565b612080576040517f08c379a0000000000000000000000000000000000000000000000000000000008152600401612077906145f3565b60405180910390fd5b600061208b83610f14565b90508073ffffffffffffffffffffffffffffffffffffffff168473ffffffffffffffffffffffffffffffffffffffff1614806120fa57508373ffffffffffffffffffffffffffffffffffffffff166120e284610729565b73ffffffffffffffffffffffffffffffffffffffff16145b8061210b575061210a8185611809565b5b91505092915050565b8273ffffffffffffffffffffffffffffffffffffffff1661213482610f14565b73ffffffffffffffffffffffffffffffffffffffff161461218a576040517f08c379a000000000000000000000000000000000000000000000000000000000815260040161218190614685565b60405180910390fd5b600073ffffffffffffffffffffffffffffffffffffffff168273ffffffffffffffffffffffffffffffffffffffff1614156121fa576040517f08c379a00000000000000000000000000000000000000000000000000000000081526004016121f190614717565b60405180910390fd5b612205838383612cca565b612210600082611ede565b6001600360008573ffffffffffffffffffffffffffffffffffffffff1673ffffffffffffffffffffffffffffffffffffffff16815260200190815260200160002060008282546122609190614766565b925050819055506001600360008473ffffffffffffffffffffffffffffffffffffffff1673ffffffffffffffffffffffffffffffffffffffff16815260200190815260200160002060008282546122b7919061479a565b92505081905550816002600083815260200190815260200160002060006101000a81548173ffffffffffffffffffffffffffffffffffffffff021916908373ffffffffffffffffffffffffffffffffffffffff160217905550808273ffffffffffffffffffffffffffffffffffffffff168473ffffffffffffffffffffffffffffffffffffffff167fddf252ad1be2c89b69c2b068fc378daa952ba7f163c4a11628f55a4df523b3ef60405160405180910390a4612376838383612ccf565b505050565b8173ffffffffffffffffffffffffffffffffffffffff168373ffffffffffffffffffffffffffffffffffffffff1614156123ea576040517f08c379a00000000000000000000000000000000000000000000000000000000081526004016123e19061483c565b60405180910390fd5b80600560008573ffffffffffffffffffffffffffffffffffffffff1673ffffffffffffffffffffffffffffffffffffffff16815260200190815260200160002060008473ffffffffffffffffffffffffffffffffffffffff1673ffffffffffffffffffffffffffffffffffffffff16815260200190815260200160002060006101000a81548160ff0219169083151502179055508173ffffffffffffffffffffffffffffffffffffffff168373ffffffffffffffffffffffffffffffffffffffff167f17307eab39ab6107e8899845ad3d59bd9653f200f220920489ca2b5937696c31836040516124db91906132b2565b60405180910390a3505050565b6124f3848484612114565b6124ff84848484612cd4565b61253e576040517f08c379a0000000000000000000000000000000000000000000000000000000008152600401612535906148ce565b60405180910390fd5b50505050565b606060405180602001604052806000815250905090565b606061256682611e6a565b6125a5576040517f08c379a000000000000000000000000000000000000000000000000000000000815260040161259c90614960565b60405180910390fd5b60006125af612544565b905060008151116125cf57604051806020016040528060008152506125fa565b806125d9846127db565b6040516020016125ea92919061400d565b6040516020818303038152906040525b915050919050565b6001816000016000828254019250508190555050565b600081600001549050919050565b60008060008084519050600092505b808210156127d057600085838151811061265257612651614980565b5b602001015160f81c60f81b9050608060f81b817effffffffffffffffffffffffffffffffffffffffffffffffffffffffffffff191610156126a15760018361269a919061479a565b92506127bc565b60e060f81b817effffffffffffffffffffffffffffffffffffffffffffffffffffffffffffff191610156126e3576002836126dc919061479a565b92506127bb565b60f060f81b817effffffffffffffffffffffffffffffffffffffffffffffffffffffffffffff191610156127255760038361271e919061479a565b92506127ba565b60f8801b817effffffffffffffffffffffffffffffffffffffffffffffffffffffffffffff191610156127665760048361275f919061479a565b92506127b9565b60fc60f81b817effffffffffffffffffffffffffffffffffffffffffffffffffffffffffffff191610156127a8576005836127a1919061479a565b92506127b8565b6006836127b5919061479a565b92505b5b5b5b5b5082806127c8906149af565b935050612635565b829350505050919050565b60606000821415612823576040518060400160405280600181526020017f30000000000000000000000000000000000000000000000000000000000000008152509050612937565b600082905060005b6000821461285557808061283e906149af565b915050600a8261284e9190614a27565b915061282b565b60008167ffffffffffffffff811115612871576128706138b4565b5b6040519080825280601f01601f1916602001820160405280156128a35781602001600182028036833780820191505090505b5090505b60008514612930576001826128bc9190614766565b9150600a856128cb9190614a58565b60306128d7919061479a565b60f81b8183815181106128ed576128ec614980565b5b60200101907effffffffffffffffffffffffffffffffffffffffffffffffffffffffffffff1916908160001a905350600a856129299190614a27565b94506128a7565b8093505050505b919050565b606060008251905060008114156129655760405180602001604052806000815250915050612acf565b60006003600283612976919061479a565b6129809190614a27565b600461298c9190614a89565b9050600060208261299d919061479a565b67ffffffffffffffff8111156129b6576129b56138b4565b5b6040519080825280601f01601f1916602001820160405280156129e85781602001600182028036833780820191505090505b5090506000604051806060016040528060408152602001614e55604091399050600181016020830160005b86811015612a8c5760038101905062ffffff818a015116603f8160121c168401518060081b905060ff603f83600c1c1686015116810190508060081b905060ff603f8360061c1686015116810190508060081b905060ff603f831686015116810190508060e01b90508084526004840193505050612a13565b506003860660018114612aa65760028114612ab657612ac1565b613d3d60f01b6002830352612ac1565b603d60f81b60018303525b508484525050819450505050505b919050565b612b6a81604051602401612ae89190613366565b6040516020818303038152906040527f41304fac000000000000000000000000000000000000000000000000000000007bffffffffffffffffffffffffffffffffffffffffffffffffffffffff19166020820180517bffffffffffffffffffffffffffffffffffffffffffffffffffffffff8381831617835250505050612ca1565b50565b612b87828260405180602001604052806000815250612e5c565b5050565b612b9482611e6a565b612bd3576040517f08c379a0000000000000000000000000000000000000000000000000000000008152600401612bca90614b55565b60405180910390fd5b80600660008481526020019081526020016000209080519060200190612bfa92919061315b565b505050565b612c9b84848484604051602401612c199493929190614b75565b6040516020818303038152906040527f8f624be9000000000000000000000000000000000000000000000000000000007bffffffffffffffffffffffffffffffffffffffffffffffffffffffff19166020820180517bffffffffffffffffffffffffffffffffffffffffffffffffffffffff8381831617835250505050612ca1565b50505050565b60008151905060006a636f6e736f6c652e6c6f679050602083016000808483855afa5050505050565b505050565b505050565b6000612cf58473ffffffffffffffffffffffffffffffffffffffff16612eb7565b15612e4f578373ffffffffffffffffffffffffffffffffffffffff1663150b7a02612d1e611ed6565b8786866040518563ffffffff1660e01b8152600401612d409493929190614c1d565b6020604051808303816000875af1925050508015612d7c57506040513d601f19601f82011682018060405250810190612d799190614c7e565b60015b612dff573d8060008114612dac576040519150601f19603f3d011682016040523d82523d6000602084013e612db1565b606091505b50600081511415612df7576040517f08c379a0000000000000000000000000000000000000000000000000000000008152600401612dee906148ce565b60405180910390fd5b805181602001fd5b63150b7a0260e01b7bffffffffffffffffffffffffffffffffffffffffffffffffffffffff1916817bffffffffffffffffffffffffffffffffffffffffffffffffffffffff191614915050612e54565b600190505b949350505050565b612e668383612eda565b612e736000848484612cd4565b612eb2576040517f08c379a0000000000000000000000000000000000000000000000000000000008152600401612ea9906148ce565b60405180910390fd5b505050565b6000808273ffffffffffffffffffffffffffffffffffffffff163b119050919050565b600073ffffffffffffffffffffffffffffffffffffffff168273ffffffffffffffffffffffffffffffffffffffff161415612f4a576040517f08c379a0000000000000000000000000000000000000000000000000000000008152600401612f4190614cf7565b60405180910390fd5b612f5381611e6a565b15612f93576040517f08c379a0000000000000000000000000000000000000000000000000000000008152600401612f8a90614d63565b60405180910390fd5b612f9f60008383612cca565b6001600360008473ffffffffffffffffffffffffffffffffffffffff1673ffffffffffffffffffffffffffffffffffffffff1681526020019081526020016000206000828254612fef919061479a565b92505081905550816002600083815260200190815260200160002060006101000a81548173ffffffffffffffffffffffffffffffffffffffff021916908373ffffffffffffffffffffffffffffffffffffffff160217905550808273ffffffffffffffffffffffffffffffffffffffff16600073ffffffffffffffffffffffffffffffffffffffff167fddf252ad1be2c89b69c2b068fc378daa952ba7f163c4a11628f55a4df523b3ef60405160405180910390a46130b060008383612ccf565b5050565b60405180606001604052806060815260200160608152602001606081525090565b8280546130e190613ad1565b90600052602060002090601f016020900481019282613103576000855561314a565b82601f1061311c57803560ff191683800117855561314a565b8280016001018555821561314a579182015b8281111561314957823582559160200191906001019061312e565b5b50905061315791906131e1565b5090565b82805461316790613ad1565b90600052602060002090601f01602090048101928261318957600085556131d0565b82601f106131a257805160ff19168380011785556131d0565b828001600101855582156131d0579182015b828111156131cf5782518255916020019190600101906131b4565b5b5090506131dd91906131e1565b5090565b5b808211156131fa5760008160009055506001016131e2565b5090565b6000604051905090565b600080fd5b600080fd5b60007fffffffff0000000000000000000000000000000000000000000000000000000082169050919050565b61324781613212565b811461325257600080fd5b50565b6000813590506132648161323e565b92915050565b6000602082840312156132805761327f613208565b5b600061328e84828501613255565b91505092915050565b60008115159050919050565b6132ac81613297565b82525050565b60006020820190506132c760008301846132a3565b92915050565b600081519050919050565b600082825260208201905092915050565b60005b838110156133075780820151818401526020810190506132ec565b83811115613316576000848401525b50505050565b6000601f19601f8301169050919050565b6000613338826132cd565b61334281856132d8565b93506133528185602086016132e9565b61335b8161331c565b840191505092915050565b60006020820190508181036000830152613380818461332d565b905092915050565b6000819050919050565b61339b81613388565b81146133a657600080fd5b50565b6000813590506133b881613392565b92915050565b6000602082840312156133d4576133d3613208565b5b60006133e2848285016133a9565b91505092915050565b600073ffffffffffffffffffffffffffffffffffffffff82169050919050565b6000613416826133eb565b9050919050565b6134268161340b565b82525050565b6000602082019050613441600083018461341d565b92915050565b6134508161340b565b811461345b57600080fd5b50565b60008135905061346d81613447565b92915050565b6000806040838503121561348a57613489613208565b5b60006134988582860161345e565b92505060206134a9858286016133a9565b9150509250929050565b600080fd5b600080fd5b600080fd5b60008083601f8401126134d8576134d76134b3565b5b8235905067ffffffffffffffff8111156134f5576134f46134b8565b5b602083019150836001820283011115613511576135106134bd565b5b9250929050565b6000806020838503121561352f5761352e613208565b5b600083013567ffffffffffffffff81111561354d5761354c61320d565b5b613559858286016134c2565b92509250509250929050565b600082825260208201905092915050565b6000613581826132cd565b61358b8185613565565b935061359b8185602086016132e9565b6135a48161331c565b840191505092915050565b600060608301600083015184820360008601526135cc8282613576565b915050602083015184820360208601526135e68282613576565b915050604083015184820360408601526136008282613576565b9150508091505092915050565b6000602082019050818103600083015261362781846135af565b905092915050565b6000806000806040858703121561364957613648613208565b5b600085013567ffffffffffffffff8111156136675761366661320d565b5b613673878288016134c2565b9450945050602085013567ffffffffffffffff8111156136965761369561320d565b5b6136a2878288016134c2565b925092505092959194509250565b6000806000606084860312156136c9576136c8613208565b5b60006136d78682870161345e565b93505060206136e88682870161345e565b92505060406136f9868287016133a9565b9150509250925092565b61370c81613388565b82525050565b60006020820190506137276000830184613703565b92915050565b60006020828403121561374357613742613208565b5b60006137518482850161345e565b91505092915050565b61376381613297565b811461376e57600080fd5b50565b6000813590506137808161375a565b92915050565b6000806040838503121561379d5761379c613208565b5b60006137ab8582860161345e565b92505060206137bc85828601613771565b9150509250929050565b6000806000806000806000806080898b0312156137e6576137e5613208565b5b600089013567ffffffffffffffff8111156138045761380361320d565b5b6138108b828c016134c2565b9850985050602089013567ffffffffffffffff8111156138335761383261320d565b5b61383f8b828c016134c2565b9650965050604089013567ffffffffffffffff8111156138625761386161320d565b5b61386e8b828c016134c2565b9450945050606089013567ffffffffffffffff8111156138915761389061320d565b5b61389d8b828c016134c2565b92509250509295985092959890939650565b600080fd5b7f4e487b7100000000000000000000000000000000000000000000000000000000600052604160045260246000fd5b6138ec8261331c565b810181811067ffffffffffffffff8211171561390b5761390a6138b4565b5b80604052505050565b600061391e6131fe565b905061392a82826138e3565b919050565b600067ffffffffffffffff82111561394a576139496138b4565b5b6139538261331c565b9050602081019050919050565b82818337600083830152505050565b600061398261397d8461392f565b613914565b90508281526020810184848401111561399e5761399d6138af565b5b6139a9848285613960565b509392505050565b600082601f8301126139c6576139c56134b3565b5b81356139d684826020860161396f565b91505092915050565b600080600080608085870312156139f9576139f8613208565b5b6000613a078782880161345e565b9450506020613a188782880161345e565b9350506040613a29878288016133a9565b925050606085013567ffffffffffffffff811115613a4a57613a4961320d565b5b613a56878288016139b1565b91505092959194509250565b60008060408385031215613a7957613a78613208565b5b6000613a878582860161345e565b9250506020613a988582860161345e565b9150509250929050565b7f4e487b7100000000000000000000000000000000000000000000000000000000600052602260045260246000fd5b60006002820490506001821680613ae957607f821691505b60208210811415613afd57613afc613aa2565b5b50919050565b7f4552433732313a20617070726f76656420717565727920666f72206e6f6e657860008201527f697374656e7420746f6b656e0000000000000000000000000000000000000000602082015250565b6000613b5f602c836132d8565b9150613b6a82613b03565b604082019050919050565b60006020820190508181036000830152613b8e81613b52565b9050919050565b7f4552433732313a20617070726f76616c20746f2063757272656e74206f776e6560008201527f7200000000000000000000000000000000000000000000000000000000000000602082015250565b6000613bf16021836132d8565b9150613bfc82613b95565b604082019050919050565b60006020820190508181036000830152613c2081613be4565b9050919050565b7f4552433732313a20617070726f76652063616c6c6572206973206e6f74206f7760008201527f6e6572206e6f7220617070726f76656420666f7220616c6c0000000000000000602082015250565b6000613c836038836132d8565b9150613c8e82613c27565b604082019050919050565b60006020820190508181036000830152613cb281613c76565b9050919050565b600081905092915050565b6000613cd08385613cb9565b9350613cdd838584613960565b82840190509392505050565b6000613cf6828486613cc4565b91508190509392505050565b7f596f75277265206e6f7420746865206f776e6572206f662074686520646f6d6160008201527f696e000000000000000000000000000000000000000000000000000000000000602082015250565b6000613d5e6022836132d8565b9150613d6982613d02565b604082019050919050565b60006020820190508181036000830152613d8d81613d51565b9050919050565b7f4552433732313a207472616e736665722063616c6c6572206973206e6f74206f60008201527f776e6572206e6f7220617070726f766564000000000000000000000000000000602082015250565b6000613df06031836132d8565b9150613dfb82613d94565b604082019050919050565b60006020820190508181036000830152613e1f81613de3565b9050919050565b7f4552433732313a206f776e657220717565727920666f72206e6f6e657869737460008201527f656e7420746f6b656e0000000000000000000000000000000000000000000000602082015250565b6000613e826029836132d8565b9150613e8d82613e26565b604082019050919050565b60006020820190508181036000830152613eb181613e75565b9050919050565b7f4552433732313a2062616c616e636520717565727920666f7220746865207a6560008201527f726f206164647265737300000000000000000000000000000000000000000000602082015250565b6000613f14602a836132d8565b9150613f1f82613eb8565b604082019050919050565b60006020820190508181036000830152613f4381613f07565b9050919050565b7f45524337323155524953746f726167653a2055524920717565727920666f722060008201527f6e6f6e6578697374656e7420746f6b656e000000000000000000000000000000602082015250565b6000613fa66031836132d8565b9150613fb182613f4a565b604082019050919050565b60006020820190508181036000830152613fd581613f99565b9050919050565b6000613fe7826132cd565b613ff18185613cb9565b93506140018185602086016132e9565b80840191505092915050565b60006140198285613fdc565b91506140258284613fdc565b91508190509392505050565b7f446f6d61696e20697320616c7265616479207265676973746572656400000000600082015250565b6000614067601c836132d8565b915061407282614031565b602082019050919050565b600060208201905081810360008301526140968161405a565b9050919050565b7f4e6f7420656e6f756768204d4154494320706169640000000000000000000000600082015250565b60006140d36015836132d8565b91506140de8261409d565b602082019050919050565b60006020820190508181036000830152614102816140c6565b9050919050565b7f2e00000000000000000000000000000000000000000000000000000000000000600082015250565b600061413f600183613cb9565b915061414a82614109565b600182019050919050565b60008190508160005260206000209050919050565b6000815461417781613ad1565b6141818186613cb9565b9450600182166000811461419c57600181146141ad576141e0565b60ff198316865281860193506141e0565b6141b685614155565b60005b838110156141d8578154818901526001820191506020810190506141b9565b838801955050505b50505092915050565b60006141f6828587613cc4565b915061420182614132565b915061420d828461416a565b9150819050949350505050565b6000614226828661416a565b91506142328285613fdc565b915061423e828461416a565b9150819050949350505050565b7f7b226e616d65223a202200000000000000000000000000000000000000000000600082015250565b6000614281600a83613cb9565b915061428c8261424b565b600a82019050919050565b7f222c20226465736372697074696f6e223a20224120646f6d61696e206f6e207460008201527f68652049626973206e616d652073657276696365222c2022696d616765223a2060208201527f22646174613a696d6167652f7376672b786d6c3b6261736536342c0000000000604082015250565b6000614319605b83613cb9565b915061432482614297565b605b82019050919050565b7f222c226c656e677468223a220000000000000000000000000000000000000000600082015250565b6000614365600c83613cb9565b91506143708261432f565b600c82019050919050565b7f227d000000000000000000000000000000000000000000000000000000000000600082015250565b60006143b1600283613cb9565b91506143bc8261437b565b600282019050919050565b60006143d282614274565b91506143de8286613fdc565b91506143e98261430c565b91506143f58285613fdc565b915061440082614358565b915061440c8284613fdc565b9150614417826143a4565b9150819050949350505050565b7f646174613a6170706c69636174696f6e2f6a736f6e3b6261736536342c000000600082015250565b600061445a601d83613cb9565b915061446582614424565b601d82019050919050565b600061447b8261444d565b91506144878284613fdc565b915081905092915050565b7f446f6d61696e2063616e277420626520626c616e6b0000000000000000000000600082015250565b60006144c86015836132d8565b91506144d382614492565b602082019050919050565b600060208201905081810360008301526144f7816144bb565b9050919050565b60006040820190508181036000830152614518818561332d565b9050818103602083015261452c818461332d565b90509392505050565b6000606082019050818103600083015261454f818661332d565b90508181036020830152614563818561332d565b90508181036040830152614577818461332d565b9050949350505050565b7f4552433732313a206f70657261746f7220717565727920666f72206e6f6e657860008201527f697374656e7420746f6b656e0000000000000000000000000000000000000000602082015250565b60006145dd602c836132d8565b91506145e882614581565b604082019050919050565b6000602082019050818103600083015261460c816145d0565b9050919050565b7f4552433732313a207472616e736665722066726f6d20696e636f72726563742060008201527f6f776e6572000000000000000000000000000000000000000000000000000000602082015250565b600061466f6025836132d8565b915061467a82614613565b604082019050919050565b6000602082019050818103600083015261469e81614662565b9050919050565b7f4552433732313a207472616e7366657220746f20746865207a65726f2061646460008201527f7265737300000000000000000000000000000000000000000000000000000000602082015250565b60006147016024836132d8565b915061470c826146a5565b604082019050919050565b60006020820190508181036000830152614730816146f4565b9050919050565b7f4e487b7100000000000000000000000000000000000000000000000000000000600052601160045260246000fd5b600061477182613388565b915061477c83613388565b92508282101561478f5761478e614737565b5b828203905092915050565b60006147a582613388565b91506147b083613388565b9250827fffffffffffffffffffffffffffffffffffffffffffffffffffffffffffffffff038211156147e5576147e4614737565b5b828201905092915050565b7f4552433732313a20617070726f766520746f2063616c6c657200000000000000600082015250565b60006148266019836132d8565b9150614831826147f0565b602082019050919050565b6000602082019050818103600083015261485581614819565b9050919050565b7f4552433732313a207472616e7366657220746f206e6f6e20455243373231526560008201527f63656976657220696d706c656d656e7465720000000000000000000000000000602082015250565b60006148b86032836132d8565b91506148c38261485c565b604082019050919050565b600060208201905081810360008301526148e7816148ab565b9050919050565b7f4552433732314d657461646174613a2055524920717565727920666f72206e6f60008201527f6e6578697374656e7420746f6b656e0000000000000000000000000000000000602082015250565b600061494a602f836132d8565b9150614955826148ee565b604082019050919050565b600060208201905081810360008301526149798161493d565b9050919050565b7f4e487b7100000000000000000000000000000000000000000000000000000000600052603260045260246000fd5b60006149ba82613388565b91507fffffffffffffffffffffffffffffffffffffffffffffffffffffffffffffffff8214156149ed576149ec614737565b5b600182019050919050565b7f4e487b7100000000000000000000000000000000000000000000000000000000600052601260045260246000fd5b6000614a3282613388565b9150614a3d83613388565b925082614a4d57614a4c6149f8565b5b828204905092915050565b6000614a6382613388565b9150614a6e83613388565b925082614a7e57614a7d6149f8565b5b828206905092915050565b6000614a9482613388565b9150614a9f83613388565b9250817fffffffffffffffffffffffffffffffffffffffffffffffffffffffffffffffff0483118215151615614ad857614ad7614737565b5b828202905092915050565b7f45524337323155524953746f726167653a2055524920736574206f66206e6f6e60008201527f6578697374656e7420746f6b656e000000000000000000000000000000000000602082015250565b6000614b3f602e836132d8565b9150614b4a82614ae3565b604082019050919050565b60006020820190508181036000830152614b6e81614b32565b9050919050565b60006080820190508181036000830152614b8f818761332d565b9050614b9e602083018661341d565b8181036040830152614bb0818561332d565b9050614bbf6060830184613703565b95945050505050565b600081519050919050565b600082825260208201905092915050565b6000614bef82614bc8565b614bf98185614bd3565b9350614c098185602086016132e9565b614c128161331c565b840191505092915050565b6000608082019050614c32600083018761341d565b614c3f602083018661341d565b614c4c6040830185613703565b8181036060830152614c5e8184614be4565b905095945050505050565b600081519050614c788161323e565b92915050565b600060208284031215614c9457614c93613208565b5b6000614ca284828501614c69565b91505092915050565b7f4552433732313a206d696e7420746f20746865207a65726f2061646472657373600082015250565b6000614ce16020836132d8565b9150614cec82614cab565b602082019050919050565b60006020820190508181036000830152614d1081614cd4565b9050919050565b7f4552433732313a20746f6b656e20616c7265616479206d696e74656400000000600082015250565b6000614d4d601c836132d8565b9150614d5882614d17565b602082019050919050565b60006020820190508181036000830152614d7c81614d40565b905091905056fe0a2d2d2d2d2d2d2d2d2d2d2d2d2d2d2d2d2d2d2d2d2d2d2d2d2d2d2d2d2d2d2d2d2d2d2d2d2d2d2d2d2d2d2d2d2d2d2d2d2d2d2d2d2d2d2d2d53657474696e672053706f74696679204c696e6b207265636f726420746f20257320666f7220646f6d61696e2025732d2d2d2d2d2d2d2d2d2d2d2d2d2d2d2d2d2d2d2d2d2d2d2d2d2d2d2d2d2d2d2d2d2d2d2d2d2d2d2d2d2d2d2d2d2d2d2d2d2d2d2d2d2d2d2d0a25732068617320726567697374657265642074686520646f6d61696e202573207769746820746f6b656e2049442025644142434445464748494a4b4c4d4e4f505152535455565758595a6162636465666768696a6b6c6d6e6f707172737475767778797a303132333435363738392b2f53657474696e672054776974746572207265636f726420746f20257320666f7220646f6d61696e20257353657474696e67206e69636b6e616d65207265636f726420746f20257320666f7220646f6d61696e202573a26469706673582212202b911777ea7f864f80f70fbf812e0ca48b5fb309440a5701ae92b4155f75c3b464736f6c634300080a00333c73766720786d6c6e733d22687474703a2f2f7777772e77332e6f72672f323030302f737667222077696474683d2232373022206865696768743d22323730222066696c6c3d226e6f6e65223e3c706174682066696c6c3d2275726c282361292220643d224d302030683237307632373048307a222f3e3c646566733e3c66696c7465722069643d22622220636f6c6f722d696e746572706f6c6174696f6e2d66696c746572733d2273524742222066696c746572556e6974733d227573657253706163654f6e55736522206865696768743d22323730222077696474683d22323730223e3c666544726f70536861646f772064783d2230222064793d22312220737464446576696174696f6e3d22322220666c6f6f642d6f7061636974793d222e323235222077696474683d223230302522206865696768743d2232303025222f3e3c2f66696c7465723e3c2f646566733e3c67207472616e73666f726d3d227472616e736c61746528323020323529223e3c672066696c6c3d2223666639643237223e3c7061746820643d224d31302e392034382e3763342d3420342e342d3520362e392d322e3573312e3520322e382d322e3520362e39632d3320332d362e3820322e342d362e3820322e34732d2e362d332e3820322e342d362e38222f3e3c7061746820643d224d31382e352035322e3863312e362d342e3220322e312d342e372d2e322d362d322e332d312e332d322e332d2e342d332e3820332e382d312e3220332e312e3220352e392e3220352e3973322e372d2e3520332e382d332e37222f3e3c2f673e3c7061746820643d224d31362e322034382e39632e392d322e332e392d322e3820322e312d322e3120312e332e3720312031202e3120332e332d2e3620312e372d322e3120322e312d322e3120322e31732d2e372d312e352d2e312d332e33222066696c6c3d2223666466353136222f3e3c7061746820643d224d31372e312034352e37632d312e332d322e332d312e382d312e382d362d2e322d332e3120312e322d332e3720332e382d332e3720332e3873322e3820312e3420352e392e3263342e322d312e3620352e312d312e3620332e382d332e38222066696c6c3d2223666639643237222f3e3c672066696c6c3d2223666466353136223e3c7061746820643d224d31352034372e3863322e332d2e3920322e382d2e3920322e312d322e312d2e372d312e332d312d312d332e332d2e312d312e372e362d322e3120322e312d322e3120322e3173312e362e3720332e332e31222f3e3c7061746820643d224d31332e392034372e3663322e322d322e3220322e342d322e3820332e382d312e34732e3820312e362d312e3420332e38632d312e3720312e372d332e3820312e332d332e3820312e33732d2e322d3220312e342d332e37222f3e3c2f673e3c7061746820643d224d31382e352033384331322e332032372e3620322033312e3920322033312e397331342e372d31342e372032342e362d342e384c31382e352033387a222066696c6c3d2223336261616366222f3e3c7061746820643d226d32332e332033302e3320332e322d332e324331362e372031372e3220322033312e3920322033312e397331322e392d392e322032312e332d312e36222066696c6c3d2223343238626331222f3e3c7061746820643d224d32362034352e354333362e342035312e372033322e312036322033322e312036327331342e372d31342e3720342e382d32342e364c32362034352e357a222066696c6c3d2223336261616366222f3e3c7061746820643d226d33332e372034302e3720332e322d332e3263392e3920392e392d342e382032342e362d342e382032342e3673392e322d313320312e362d32312e34222066696c6c3d2223343238626331222f3e3c7061746820643d224d34382e382033302e394333372e312034322e352032342e322034382e382031392e372034342e33632d342e352d342e3520312e382d31372e342031332e342d32392e312031332e362d31332e362032382e372d31332032382e372d3133732e352031352e312d31332032382e37222066696c6c3d2223633564306438222f3e3c7061746820643d224d34352e382032372e364333342e322033392e322032322e362034362e382031392e392034342e31632d322e372d322e3720342e392d31342e332031362e352d32352e3943353020342e3620363220322036322032732d322e362031322d31362e322032352e367a222066696c6c3d2223646165336561222f3e3c7061746820643d224d32342e332034372e35632d2e352e352d312e332e352d312e3820306c2d362d36632d2e352d2e352d2e352d312e3420302d312e396c312e382d312e3820372e3820372e382d312e3820312e39222066696c6c3d2223633934373437222f3e3c7061746820643d224d32322e362034352e37632d2e352e352d312e312e372d312e342e346c2d332e342d332e34632d2e332d2e332d2e312d2e392e342d312e346c312e382d312e3820342e3420342e342d312e3820312e38222066696c6c3d2223663135373434222f3e3c7061746820643d224d32302e392034382e32632d2e332e332d31202e332d312e3320306c2d332e392d332e39632d2e332d2e332d2e322d2e392e312d312e326c312e322d312e3220352e3120352e312d312e3220312e32222066696c6c3d2223336534333437222f3e3c7061746820643d224d32302e312034372e34632d2e332e332d2e392e342d312e312e326c2d322e372d322e37632d2e322d2e322d2e312d2e372e332d316c312e322d312e3220332e3520332e352d312e3220312e32222066696c6c3d2223363237323761222f3e3c7061746820643d224d36312e3820322e325335362e3420322034392e3120342e386c31302e312031302e3143363220372e362036312e3820322e322036312e3820322e32222066696c6c3d2223633934373437222f3e3c7061746820643d224d36312e3820322e32732d342e332e392d31302e3820342e366c362e3220362e3263332e372d362e3520342e362d31302e3820342e362d31302e38222066696c6c3d2223663135373434222f3e3c636972636c652063783d2234332e35222063793d2232302e352220723d2235222066696c6c3d2223656466346639222f3e3c636972636c652063783d2234332e35222063793d2232302e352220723d22332e33222066696c6c3d2223336261616366222f3e3c636972636c652063783d2233332e35222063793d2233302e352220723d2235222066696c6c3d2223656466346639222f3e3c636972636c652063783d2233332e35222063793d2233302e352220723d22332e33222066696c6c3d2223336261616366222f3e3c672066696c6c3d2223666666223e3c7061746820643d224d34382e3920362e39632d2e332e332d2e392e332d312e3220302d2e332d2e332d2e332d2e3920302d312e322e332d2e332e392d2e3320312e322030202e332e332e332e39203020312e32222f3e3c636972636c652063783d2235302e36222063793d22382e362220723d222e38222f3e3c636972636c652063783d223533222063793d2231312220723d222e38222f3e3c636972636c652063783d2235352e33222063793d2231332e342220723d222e38222f3e3c636972636c652063783d2235372e37222063793d2231352e372220723d222e38222f3e3c2f673e3c2f673e3c646566733e3c6c696e6561724772616469656e742069643d2261222078313d2230222079313d2230222078323d22323730222079323d2232373022206772616469656e74556e6974733d227573657253706163654f6e557365223e3c73746f702073746f702d636f6c6f723d2223313131646466222f3e3c73746f70206f66667365743d2231222073746f702d636f6c6f723d2223306364376534222073746f702d6f7061636974793d222e3939222f3e3c2f6c696e6561724772616469656e743e3c2f646566733e3c7465787420783d2233322e352220793d223233312220666f6e742d73697a653d223237222066696c6c3d2223666666222066696c7465723d2275726c282362292220666f6e742d66616d696c793d22506c7573204a616b617274612053616e732c44656a6156752053616e732c4e6f746f20436f6c6f7220456d6f6a692c4170706c6520436f6c6f7220456d6f6a692c73616e732d73657269662220666f6e742d7765696768743d22626f6c64223e2e257320646f6d61696e207365727669636520636f6e7472616374206465706c6f796564",
    "linkReferences": {},
    "deployedLinkReferences": {}
}