{
  "_format": "hh-sol-artifact-1",
  "contractName": "Domains",
  "sourceName": "contracts/Domains.sol",
  "abi": [
    {
      "inputs": [
        {
          "internalType": "string",
          "name": "_tld",
          "type": "string"
        }
      ],
      "stateMutability": "payable",
      "type": "constructor"
    },
    {
      "anonymous": false,
      "inputs": [
        {
          "indexed": true,
          "internalType": "address",
          "name": "owner",
          "type": "address"
        },
        {
          "indexed": true,
          "internalType": "address",
          "name": "approved",
          "type": "address"
        },
        {
          "indexed": true,
          "internalType": "uint256",
          "name": "tokenId",
          "type": "uint256"
        }
      ],
      "name": "Approval",
      "type": "event"
    },
    {
      "anonymous": false,
      "inputs": [
        {
          "indexed": true,
          "internalType": "address",
          "name": "owner",
          "type": "address"
        },
        {
          "indexed": true,
          "internalType": "address",
          "name": "operator",
          "type": "address"
        },
        {
          "indexed": false,
          "internalType": "bool",
          "name": "approved",
          "type": "bool"
        }
      ],
      "name": "ApprovalForAll",
      "type": "event"
    },
    {
      "anonymous": false,
      "inputs": [
        {
          "indexed": true,
          "internalType": "address",
          "name": "from",
          "type": "address"
        },
        {
          "indexed": true,
          "internalType": "address",
          "name": "to",
          "type": "address"
        },
        {
          "indexed": true,
          "internalType": "uint256",
          "name": "tokenId",
          "type": "uint256"
        }
      ],
      "name": "Transfer",
      "type": "event"
    },
    {
      "inputs": [
        {
          "internalType": "address",
          "name": "to",
          "type": "address"
        },
        {
          "internalType": "uint256",
          "name": "tokenId",
          "type": "uint256"
        }
      ],
      "name": "approve",
      "outputs": [],
      "stateMutability": "nonpayable",
      "type": "function"
    },
    {
      "inputs": [
        {
          "internalType": "address",
          "name": "owner",
          "type": "address"
        }
      ],
      "name": "balanceOf",
      "outputs": [
        {
          "internalType": "uint256",
          "name": "",
          "type": "uint256"
        }
      ],
      "stateMutability": "view",
      "type": "function"
    },
    {
      "inputs": [
        {
          "internalType": "string",
          "name": "_name",
          "type": "string"
        }
      ],
      "name": "getAddress",
      "outputs": [
        {
          "internalType": "address",
          "name": "",
          "type": "address"
        }
      ],
      "stateMutability": "view",
      "type": "function"
    },
    {
      "inputs": [],
      "name": "getAllNames",
      "outputs": [
        {
          "internalType": "string[]",
          "name": "",
          "type": "string[]"
        }
      ],
      "stateMutability": "view",
      "type": "function"
    },
    {
      "inputs": [
        {
          "internalType": "uint256",
          "name": "tokenId",
          "type": "uint256"
        }
      ],
      "name": "getApproved",
      "outputs": [
        {
          "internalType": "address",
          "name": "",
          "type": "address"
        }
      ],
      "stateMutability": "view",
      "type": "function"
    },
    {
      "inputs": [
        {
          "internalType": "string",
          "name": "_name",
          "type": "string"
        }
      ],
      "name": "getNftId",
      "outputs": [
        {
          "internalType": "uint256",
          "name": "",
          "type": "uint256"
        }
      ],
      "stateMutability": "view",
      "type": "function"
    },
    {
      "inputs": [
        {
          "internalType": "string",
          "name": "_name",
          "type": "string"
        }
      ],
      "name": "getRecord",
      "outputs": [
        {
          "components": [
            {
              "internalType": "string",
              "name": "nickname",
              "type": "string"
            },
            {
              "internalType": "string",
              "name": "spotifyLink",
              "type": "string"
            },
            {
              "internalType": "string",
              "name": "twitter",
              "type": "string"
            }
          ],
          "internalType": "struct Domains.Record",
          "name": "",
          "type": "tuple"
        }
      ],
      "stateMutability": "view",
      "type": "function"
    },
    {
      "inputs": [
        {
          "internalType": "address",
          "name": "owner",
          "type": "address"
        },
        {
          "internalType": "address",
          "name": "operator",
          "type": "address"
        }
      ],
      "name": "isApprovedForAll",
      "outputs": [
        {
          "internalType": "bool",
          "name": "",
          "type": "bool"
        }
      ],
      "stateMutability": "view",
      "type": "function"
    },
    {
      "inputs": [],
      "name": "isOwner",
      "outputs": [
        {
          "internalType": "bool",
          "name": "",
          "type": "bool"
        }
      ],
      "stateMutability": "view",
      "type": "function"
    },
    {
      "inputs": [],
      "name": "name",
      "outputs": [
        {
          "internalType": "string",
          "name": "",
          "type": "string"
        }
      ],
      "stateMutability": "view",
      "type": "function"
    },
    {
      "inputs": [
        {
          "internalType": "uint256",
          "name": "",
          "type": "uint256"
        }
      ],
      "name": "names",
      "outputs": [
        {
          "internalType": "string",
          "name": "",
          "type": "string"
        }
      ],
      "stateMutability": "view",
      "type": "function"
    },
    {
      "inputs": [],
      "name": "owner",
      "outputs": [
        {
          "internalType": "address payable",
          "name": "",
          "type": "address"
        }
      ],
      "stateMutability": "view",
      "type": "function"
    },
    {
      "inputs": [
        {
          "internalType": "uint256",
          "name": "tokenId",
          "type": "uint256"
        }
      ],
      "name": "ownerOf",
      "outputs": [
        {
          "internalType": "address",
          "name": "",
          "type": "address"
        }
      ],
      "stateMutability": "view",
      "type": "function"
    },
    {
      "inputs": [
        {
          "internalType": "string",
          "name": "name",
          "type": "string"
        }
      ],
      "name": "price",
      "outputs": [
        {
          "internalType": "uint256",
          "name": "",
          "type": "uint256"
        }
      ],
      "stateMutability": "pure",
      "type": "function"
    },
    {
      "inputs": [
        {
          "internalType": "string",
          "name": "_name",
          "type": "string"
        }
      ],
      "name": "register",
      "outputs": [],
      "stateMutability": "payable",
      "type": "function"
    },
    {
      "inputs": [
        {
          "internalType": "address",
          "name": "from",
          "type": "address"
        },
        {
          "internalType": "address",
          "name": "to",
          "type": "address"
        },
        {
          "internalType": "uint256",
          "name": "tokenId",
          "type": "uint256"
        }
      ],
      "name": "safeTransferFrom",
      "outputs": [],
      "stateMutability": "nonpayable",
      "type": "function"
    },
    {
      "inputs": [
        {
          "internalType": "address",
          "name": "from",
          "type": "address"
        },
        {
          "internalType": "address",
          "name": "to",
          "type": "address"
        },
        {
          "internalType": "uint256",
          "name": "tokenId",
          "type": "uint256"
        },
        {
          "internalType": "bytes",
          "name": "_data",
          "type": "bytes"
        }
      ],
      "name": "safeTransferFrom",
      "outputs": [],
      "stateMutability": "nonpayable",
      "type": "function"
    },
    {
      "inputs": [
        {
          "internalType": "string",
          "name": "_name",
          "type": "string"
        },
        {
          "internalType": "string",
          "name": "_nickname",
          "type": "string"
        },
        {
          "internalType": "string",
          "name": "_spotifyLink",
          "type": "string"
        },
        {
          "internalType": "string",
          "name": "_twitter",
          "type": "string"
        }
      ],
      "name": "setAllRecords",
      "outputs": [],
      "stateMutability": "nonpayable",
      "type": "function"
    },
    {
      "inputs": [
        {
          "internalType": "address",
          "name": "operator",
          "type": "address"
        },
        {
          "internalType": "bool",
          "name": "approved",
          "type": "bool"
        }
      ],
      "name": "setApprovalForAll",
      "outputs": [],
      "stateMutability": "nonpayable",
      "type": "function"
    },
    {
      "inputs": [
        {
          "internalType": "string",
          "name": "_name",
          "type": "string"
        },
        {
          "internalType": "string",
          "name": "_nickname",
          "type": "string"
        }
      ],
      "name": "setNickname",
      "outputs": [],
      "stateMutability": "nonpayable",
      "type": "function"
    },
    {
      "inputs": [
        {
          "internalType": "string",
          "name": "_name",
          "type": "string"
        },
        {
          "internalType": "string",
          "name": "_spotifyLink",
          "type": "string"
        }
      ],
      "name": "setSpotifyLink",
      "outputs": [],
      "stateMutability": "nonpayable",
      "type": "function"
    },
    {
      "inputs": [
        {
          "internalType": "string",
          "name": "_name",
          "type": "string"
        },
        {
          "internalType": "string",
          "name": "_twitter",
          "type": "string"
        }
      ],
      "name": "setTwitter",
      "outputs": [],
      "stateMutability": "nonpayable",
      "type": "function"
    },
    {
      "inputs": [
        {
          "internalType": "bytes4",
          "name": "interfaceId",
          "type": "bytes4"
        }
      ],
      "name": "supportsInterface",
      "outputs": [
        {
          "internalType": "bool",
          "name": "",
          "type": "bool"
        }
      ],
      "stateMutability": "view",
      "type": "function"
    },
    {
      "inputs": [],
      "name": "symbol",
      "outputs": [
        {
          "internalType": "string",
          "name": "",
          "type": "string"
        }
      ],
      "stateMutability": "view",
      "type": "function"
    },
    {
      "inputs": [],
      "name": "tld",
      "outputs": [
        {
          "internalType": "string",
          "name": "",
          "type": "string"
        }
      ],
      "stateMutability": "view",
      "type": "function"
    },
    {
      "inputs": [
        {
          "internalType": "uint256",
          "name": "tokenId",
          "type": "uint256"
        }
      ],
      "name": "tokenURI",
      "outputs": [
        {
          "internalType": "string",
          "name": "",
          "type": "string"
        }
      ],
      "stateMutability": "view",
      "type": "function"
    },
    {
      "inputs": [
        {
          "internalType": "address",
          "name": "from",
          "type": "address"
        },
        {
          "internalType": "address",
          "name": "to",
          "type": "address"
        },
        {
          "internalType": "uint256",
          "name": "tokenId",
          "type": "uint256"
        }
      ],
      "name": "transferFrom",
      "outputs": [],
      "stateMutability": "nonpayable",
      "type": "function"
    },
    {
      "inputs": [
        {
          "internalType": "string",
          "name": "name",
          "type": "string"
        }
      ],
      "name": "valid",
      "outputs": [
        {
          "internalType": "bool",
          "name": "",
          "type": "bool"
        }
      ],
      "stateMutability": "pure",
      "type": "function"
    },
    {
      "inputs": [],
      "name": "withdraw",
      "outputs": [],
      "stateMutability": "nonpayable",
      "type": "function"
    }
  ],
  "bytecode": "0x608060405260405180610c400160405280610c08815260200162005e4a610c089139600a908051906020019062000038929190620002ac565b506040518060400160405280600d81526020017f3c2f746578743e3c2f7376673e00000000000000000000000000000000000000815250600b908051906020019062000086929190620002ac565b5060405162006a7638038062006a768339818101604052810190620000ac9190620004f9565b6040518060400160405280601181526020017f49626973204e616d6520536572766963650000000000000000000000000000008152506040518060400160405280600381526020017f494e530000000000000000000000000000000000000000000000000000000000815250816000908051906020019062000130929190620002ac565b50806001908051906020019062000149929190620002ac565b50505033600860006101000a81548173ffffffffffffffffffffffffffffffffffffffff021916908373ffffffffffffffffffffffffffffffffffffffff1602179055508060079080519060200190620001a5929190620002ac565b50620001d660405180606001604052806024815260200162006a526024913982620001dd60201b6200235c1760201c565b5062000647565b6200027f8282604051602401620001f6929190620005a7565b6040516020818303038152906040527f4b5c4277000000000000000000000000000000000000000000000000000000007bffffffffffffffffffffffffffffffffffffffffffffffffffffffff19166020820180517bffffffffffffffffffffffffffffffffffffffffffffffffffffffff83818316178352505050506200028360201b60201c565b5050565b60008151905060006a636f6e736f6c652e6c6f679050602083016000808483855afa5050505050565b828054620002ba9062000611565b90600052602060002090601f016020900481019282620002de57600085556200032a565b82601f10620002f957805160ff19168380011785556200032a565b828001600101855582156200032a579182015b82811115620003295782518255916020019190600101906200030c565b5b5090506200033991906200033d565b5090565b5b80821115620003585760008160009055506001016200033e565b5090565b6000604051905090565b600080fd5b600080fd5b600080fd5b600080fd5b6000601f19601f8301169050919050565b7f4e487b7100000000000000000000000000000000000000000000000000000000600052604160045260246000fd5b620003c5826200037a565b810181811067ffffffffffffffff82111715620003e757620003e66200038b565b5b80604052505050565b6000620003fc6200035c565b90506200040a8282620003ba565b919050565b600067ffffffffffffffff8211156200042d576200042c6200038b565b5b62000438826200037a565b9050602081019050919050565b60005b838110156200046557808201518184015260208101905062000448565b8381111562000475576000848401525b50505050565b6000620004926200048c846200040f565b620003f0565b905082815260208101848484011115620004b157620004b062000375565b5b620004be84828562000445565b509392505050565b600082601f830112620004de57620004dd62000370565b5b8151620004f08482602086016200047b565b91505092915050565b60006020828403121562000512576200051162000366565b5b600082015167ffffffffffffffff8111156200053357620005326200036b565b5b6200054184828501620004c6565b91505092915050565b600081519050919050565b600082825260208201905092915050565b600062000573826200054a565b6200057f818562000555565b93506200059181856020860162000445565b6200059c816200037a565b840191505092915050565b60006040820190508181036000830152620005c3818562000566565b90508181036020830152620005d9818462000566565b90509392505050565b7f4e487b7100000000000000000000000000000000000000000000000000000000600052602260045260246000fd5b600060028204905060018216806200062a57607f821691505b60208210811415620006415762000640620005e2565b5b50919050565b6157f380620006576000396000f3fe6080604052600436106101c25760003560e01c806370a08231116100f7578063ae11ca4411610095578063e985e9c511610064578063e985e9c514610688578063f2c298be146106c5578063fb825e5f146106e1578063fe2c61981461070c576101c2565b8063ae11ca44146105bc578063b88d4fde146105e5578063bf40fac11461060e578063c87b56dd1461064b576101c2565b80638f32d59b116100d15780638f32d59b1461050057806395d89b411461052b5780639791c09714610556578063a22cb46514610593576101c2565b806370a082311461046f57806375656219146104ac5780638da5cb5b146104d5576101c2565b80632d5514321161016457806342842e0e1161013e57806342842e0e1461038f5780634622ab03146103b85780634b0b4950146103f55780636352211e14610432576101c2565b80632d551432146103245780633b6e1c971461034f5780633ccfd60b14610378576101c2565b8063095ea7b3116101a0578063095ea7b31461026c57806311dd8845146102955780631ecdc4d8146102d257806323b872dd146102fb576101c2565b806301ffc9a7146101c757806306fdde0314610204578063081812fc1461022f575b600080fd5b3480156101d357600080fd5b506101ee60048036038101906101e99190613901565b610749565b6040516101fb9190613949565b60405180910390f35b34801561021057600080fd5b5061021961082b565b60405161022691906139fd565b60405180910390f35b34801561023b57600080fd5b5061025660048036038101906102519190613a55565b6108bd565b6040516102639190613ac3565b60405180910390f35b34801561027857600080fd5b50610293600480360381019061028e9190613b0a565b610942565b005b3480156102a157600080fd5b506102bc60048036038101906102b79190613baf565b610a5a565b6040516102c99190613ca4565b60405180910390f35b3480156102de57600080fd5b506102f960048036038101906102f49190613cc6565b610c4b565b005b34801561030757600080fd5b50610322600480360381019061031d9190613d47565b610ddd565b005b34801561033057600080fd5b50610339610e3d565b60405161034691906139fd565b60405180910390f35b34801561035b57600080fd5b5061037660048036038101906103719190613cc6565b610ecb565b005b34801561038457600080fd5b5061038d61105d565b005b34801561039b57600080fd5b506103b660048036038101906103b19190613d47565b611123565b005b3480156103c457600080fd5b506103df60048036038101906103da9190613a55565b611143565b6040516103ec91906139fd565b60405180910390f35b34801561040157600080fd5b5061041c60048036038101906104179190613baf565b6111e3565b6040516104299190613da9565b60405180910390f35b34801561043e57600080fd5b5061045960048036038101906104549190613a55565b61120e565b6040516104669190613ac3565b60405180910390f35b34801561047b57600080fd5b5061049660048036038101906104919190613dc4565b6112c0565b6040516104a39190613da9565b60405180910390f35b3480156104b857600080fd5b506104d360048036038101906104ce9190613cc6565b611378565b005b3480156104e157600080fd5b506104ea61150a565b6040516104f79190613e12565b60405180910390f35b34801561050c57600080fd5b50610515611530565b6040516105229190613949565b60405180910390f35b34801561053757600080fd5b50610540611588565b60405161054d91906139fd565b60405180910390f35b34801561056257600080fd5b5061057d60048036038101906105789190613baf565b61161a565b60405161058a9190613949565b60405180910390f35b34801561059f57600080fd5b506105ba60048036038101906105b59190613e59565b6116ce565b005b3480156105c857600080fd5b506105e360048036038101906105de9190613e99565b6116e4565b005b3480156105f157600080fd5b5061060c600480360381019061060791906140b2565b611a36565b005b34801561061a57600080fd5b5061063560048036038101906106309190613baf565b611a98565b6040516106429190613ac3565b60405180910390f35b34801561065757600080fd5b50610672600480360381019061066d9190613a55565b611ae3565b60405161067f91906139fd565b60405180910390f35b34801561069457600080fd5b506106af60048036038101906106aa9190614135565b611c35565b6040516106bc9190613949565b60405180910390f35b6106df60048036038101906106da9190613baf565b611cc9565b005b3480156106ed57600080fd5b506106f6612121565b6040516107039190614237565b60405180910390f35b34801561071857600080fd5b50610733600480360381019061072e9190613baf565b6122c4565b6040516107409190613da9565b60405180910390f35b60007f80ac58cd000000000000000000000000000000000000000000000000000000007bffffffffffffffffffffffffffffffffffffffffffffffffffffffff1916827bffffffffffffffffffffffffffffffffffffffffffffffffffffffff1916148061081457507f5b5e139f000000000000000000000000000000000000000000000000000000007bffffffffffffffffffffffffffffffffffffffffffffffffffffffff1916827bffffffffffffffffffffffffffffffffffffffffffffffffffffffff1916145b806108245750610823826123f8565b5b9050919050565b60606000805461083a90614288565b80601f016020809104026020016040519081016040528092919081815260200182805461086690614288565b80156108b35780601f10610888576101008083540402835291602001916108b3565b820191906000526020600020905b81548152906001019060200180831161089657829003601f168201915b5050505050905090565b60006108c882612462565b610907576040517f08c379a00000000000000000000000000000000000000000000000000000000081526004016108fe9061432c565b60405180910390fd5b6004600083815260200190815260200160002060009054906101000a900473ffffffffffffffffffffffffffffffffffffffff169050919050565b600061094d8261120e565b90508073ffffffffffffffffffffffffffffffffffffffff168373ffffffffffffffffffffffffffffffffffffffff1614156109be576040517f08c379a00000000000000000000000000000000000000000000000000000000081526004016109b5906143be565b60405180910390fd5b8073ffffffffffffffffffffffffffffffffffffffff166109dd6124ce565b73ffffffffffffffffffffffffffffffffffffffff161480610a0c5750610a0b81610a066124ce565b611c35565b5b610a4b576040517f08c379a0000000000000000000000000000000000000000000000000000000008152600401610a4290614450565b60405180910390fd5b610a5583836124d6565b505050565b610a6261374b565b600d8383604051610a749291906144a0565b9081526020016040518091039020604051806060016040529081600082018054610a9d90614288565b80601f0160208091040260200160405190810160405280929190818152602001828054610ac990614288565b8015610b165780601f10610aeb57610100808354040283529160200191610b16565b820191906000526020600020905b815481529060010190602001808311610af957829003601f168201915b50505050508152602001600182018054610b2f90614288565b80601f0160208091040260200160405190810160405280929190818152602001828054610b5b90614288565b8015610ba85780601f10610b7d57610100808354040283529160200191610ba8565b820191906000526020600020905b815481529060010190602001808311610b8b57829003601f168201915b50505050508152602001600282018054610bc190614288565b80601f0160208091040260200160405190810160405280929190818152602001828054610bed90614288565b8015610c3a5780601f10610c0f57610100808354040283529160200191610c3a565b820191906000526020600020905b815481529060010190602001808311610c1d57829003601f168201915b505050505081525050905092915050565b3373ffffffffffffffffffffffffffffffffffffffff16600c8585604051610c749291906144a0565b908152602001604051809103902060009054906101000a900473ffffffffffffffffffffffffffffffffffffffff1673ffffffffffffffffffffffffffffffffffffffff1614610cf9576040517f08c379a0000000000000000000000000000000000000000000000000000000008152600401610cf09061452b565b60405180910390fd5b8181600d8686604051610d0d9291906144a0565b90815260200160405180910390206001019190610d2b92919061376c565b50610dd76040518060600160405280602f8152602001615691602f913983838080601f016020809104026020016040519081016040528093929190818152602001838380828437600081840152601f19601f8201169050808301925050505050505086868080601f016020809104026020016040519081016040528093929190818152602001838380828437600081840152601f19601f8201169050808301925050505050505061258f565b50505050565b610dee610de86124ce565b8261262e565b610e2d576040517f08c379a0000000000000000000000000000000000000000000000000000000008152600401610e24906145bd565b60405180910390fd5b610e3883838361270c565b505050565b60078054610e4a90614288565b80601f0160208091040260200160405190810160405280929190818152602001828054610e7690614288565b8015610ec35780601f10610e9857610100808354040283529160200191610ec3565b820191906000526020600020905b815481529060010190602001808311610ea657829003601f168201915b505050505081565b3373ffffffffffffffffffffffffffffffffffffffff16600c8585604051610ef49291906144a0565b908152602001604051809103902060009054906101000a900473ffffffffffffffffffffffffffffffffffffffff1673ffffffffffffffffffffffffffffffffffffffff1614610f79576040517f08c379a0000000000000000000000000000000000000000000000000000000008152600401610f709061452b565b60405180910390fd5b8181600d8686604051610f8d9291906144a0565b90815260200160405180910390206002019190610fab92919061376c565b506110576040518060600160405280602a8152602001615769602a913983838080601f016020809104026020016040519081016040528093929190818152602001838380828437600081840152601f19601f8201169050808301925050505050505086868080601f016020809104026020016040519081016040528093929190818152602001838380828437600081840152601f19601f8201169050808301925050505050505061258f565b50505050565b611065611530565b61106e57600080fd5b600047905060003373ffffffffffffffffffffffffffffffffffffffff16826040516110999061460e565b60006040518083038185875af1925050503d80600081146110d6576040519150601f19603f3d011682016040523d82523d6000602084013e6110db565b606091505b505090508061111f576040517f08c379a00000000000000000000000000000000000000000000000000000000081526004016111169061466f565b60405180910390fd5b5050565b61113e83838360405180602001604052806000815250611a36565b505050565b600f602052806000526040600020600091509050805461116290614288565b80601f016020809104026020016040519081016040528092919081815260200182805461118e90614288565b80156111db5780601f106111b0576101008083540402835291602001916111db565b820191906000526020600020905b8154815290600101906020018083116111be57829003601f168201915b505050505081565b6000600e83836040516111f79291906144a0565b908152602001604051809103902054905092915050565b6000806002600084815260200190815260200160002060009054906101000a900473ffffffffffffffffffffffffffffffffffffffff169050600073ffffffffffffffffffffffffffffffffffffffff168173ffffffffffffffffffffffffffffffffffffffff1614156112b7576040517f08c379a00000000000000000000000000000000000000000000000000000000081526004016112ae90614701565b60405180910390fd5b80915050919050565b60008073ffffffffffffffffffffffffffffffffffffffff168273ffffffffffffffffffffffffffffffffffffffff161415611331576040517f08c379a000000000000000000000000000000000000000000000000000000000815260040161132890614793565b60405180910390fd5b600360008373ffffffffffffffffffffffffffffffffffffffff1673ffffffffffffffffffffffffffffffffffffffff168152602001908152602001600020549050919050565b3373ffffffffffffffffffffffffffffffffffffffff16600c85856040516113a19291906144a0565b908152602001604051809103902060009054906101000a900473ffffffffffffffffffffffffffffffffffffffff1673ffffffffffffffffffffffffffffffffffffffff1614611426576040517f08c379a000000000000000000000000000000000000000000000000000000000815260040161141d9061452b565b60405180910390fd5b8181600d868660405161143a9291906144a0565b9081526020016040518091039020600001919061145892919061376c565b506115046040518060600160405280602b8152602001615793602b913983838080601f016020809104026020016040519081016040528093929190818152602001838380828437600081840152601f19601f8201169050808301925050505050505086868080601f016020809104026020016040519081016040528093929190818152602001838380828437600081840152601f19601f8201169050808301925050505050505061258f565b50505050565b600860009054906101000a900473ffffffffffffffffffffffffffffffffffffffff1681565b6000600860009054906101000a900473ffffffffffffffffffffffffffffffffffffffff1673ffffffffffffffffffffffffffffffffffffffff163373ffffffffffffffffffffffffffffffffffffffff1614905090565b60606001805461159790614288565b80601f01602080910402602001604051908101604052809291908181526020018280546115c390614288565b80156116105780601f106115e557610100808354040283529160200191611610565b820191906000526020600020905b8154815290600101906020018083116115f357829003601f168201915b5050505050905090565b6000600161166b84848080601f016020809104026020016040519081016040528093929190818152602001838380828437600081840152601f19601f82011690508083019250505050505050612973565b101580156116c65750600f6116c384848080601f016020809104026020016040519081016040528093929190818152602001838380828437600081840152601f19601f82011690508083019250505050505050612973565b11155b905092915050565b6116e06116d96124ce565b8383612b28565b5050565b3373ffffffffffffffffffffffffffffffffffffffff16600c898960405161170d9291906144a0565b908152602001604051809103902060009054906101000a900473ffffffffffffffffffffffffffffffffffffffff1673ffffffffffffffffffffffffffffffffffffffff1614611792576040517f08c379a00000000000000000000000000000000000000000000000000000000081526004016117899061452b565b60405180910390fd5b8585600d8a8a6040516117a69291906144a0565b908152602001604051809103902060000191906117c492919061376c565b508383600d8a8a6040516117d99291906144a0565b908152602001604051809103902060010191906117f792919061376c565b508181600d8a8a60405161180c9291906144a0565b9081526020016040518091039020600201919061182a92919061376c565b506118d66040518060600160405280602b8152602001615793602b913987878080601f016020809104026020016040519081016040528093929190818152602001838380828437600081840152601f19601f820116905080830192505050505050508a8a8080601f016020809104026020016040519081016040528093929190818152602001838380828437600081840152601f19601f8201169050808301925050505050505061258f565b6119816040518060600160405280602f8152602001615691602f913985858080601f016020809104026020016040519081016040528093929190818152602001838380828437600081840152601f19601f820116905080830192505050505050508a8a8080601f016020809104026020016040519081016040528093929190818152602001838380828437600081840152601f19601f8201169050808301925050505050505061258f565b611a2c6040518060600160405280602a8152602001615769602a913983838080601f016020809104026020016040519081016040528093929190818152602001838380828437600081840152601f19601f820116905080830192505050505050508a8a8080601f016020809104026020016040519081016040528093929190818152602001838380828437600081840152601f19601f8201169050808301925050505050505061258f565b5050505050505050565b611a47611a416124ce565b8361262e565b611a86576040517f08c379a0000000000000000000000000000000000000000000000000000000008152600401611a7d906145bd565b60405180910390fd5b611a9284848484612c95565b50505050565b6000600c8383604051611aac9291906144a0565b908152602001604051809103902060009054906101000a900473ffffffffffffffffffffffffffffffffffffffff16905092915050565b6060611aee82612462565b611b2d576040517f08c379a0000000000000000000000000000000000000000000000000000000008152600401611b2490614825565b60405180910390fd5b6000600660008481526020019081526020016000208054611b4d90614288565b80601f0160208091040260200160405190810160405280929190818152602001828054611b7990614288565b8015611bc65780601f10611b9b57610100808354040283529160200191611bc6565b820191906000526020600020905b815481529060010190602001808311611ba957829003601f168201915b505050505090506000611bd7612cf1565b9050600081511415611bed578192505050611c30565b600082511115611c22578082604051602001611c0a929190614876565b60405160208183030381529060405292505050611c30565b611c2b84612d08565b925050505b919050565b6000600560008473ffffffffffffffffffffffffffffffffffffffff1673ffffffffffffffffffffffffffffffffffffffff16815260200190815260200160002060008373ffffffffffffffffffffffffffffffffffffffff1673ffffffffffffffffffffffffffffffffffffffff16815260200190815260200160002060009054906101000a900460ff16905092915050565b600073ffffffffffffffffffffffffffffffffffffffff16600c8383604051611cf39291906144a0565b908152602001604051809103902060009054906101000a900473ffffffffffffffffffffffffffffffffffffffff1673ffffffffffffffffffffffffffffffffffffffff1614611d78576040517f08c379a0000000000000000000000000000000000000000000000000000000008152600401611d6f906148e6565b60405180910390fd5b611d82828261161a565b611dc1576040517f08c379a0000000000000000000000000000000000000000000000000000000008152600401611db890614978565b60405180910390fd5b6000611dcd83836122c4565b905080341015611e12576040517f08c379a0000000000000000000000000000000000000000000000000000000008152600401611e09906149e4565b60405180910390fd5b611e1c6009612daf565b600083836007604051602001611e3493929190614ae4565b60405160208183030381529060405290506000600a82600b604051602001611e5e93929190614b15565b60405160208183030381529060405290506000611e7b6009612dc5565b90506000611e8884612973565b90506000611e9582612dd3565b90506000611ecd86611ea687612f34565b84604051602001611eb993929190614cc2565b604051602081830303815290604052612f34565b9050600081604051602001611ee29190614d6b565b6040516020818303038152906040529050611f14604051806060016040528060398152602001615658603991396130cc565b611f536040518060400160405280600e81526020017f46696e616c20746f6b656e5552490000000000000000000000000000000000008152508261235c565b611f746040518060600160405280603981526020016156c0603991396130cc565b611f7e3386613165565b611f888582613183565b33600c8b8b604051611f9b9291906144a0565b908152602001604051809103902060006101000a81548173ffffffffffffffffffffffffffffffffffffffff021916908373ffffffffffffffffffffffffffffffffffffffff160217905550604051806060016040528060405180602001604052806000815250815260200160405180602001604052806000815250815260200160405180602001604052806000815250815250600d8b8b6040516120419291906144a0565b9081526020016040518091039020600082015181600001908051906020019061206b9291906137f2565b5060208201518160010190805190602001906120889291906137f2565b5060408201518160020190805190602001906120a59291906137f2565b5090505084600e8b8b6040516120bc9291906144a0565b9081526020016040518091039020819055508989600f600088815260200190815260200160002091906120f092919061376c565b506121156040518060600160405280603081526020016156f9603091393389886131f7565b50505050505050505050565b6060600061212f6009612dc5565b67ffffffffffffffff81111561214857612147613f87565b5b60405190808252806020026020018201604052801561217b57816020015b60608152602001906001900390816121665790505b5090506000600190505b61218f6009612dc5565b81116122bc57600f600082815260200190815260200160002080546121b390614288565b80601f01602080910402602001604051908101604052809291908181526020018280546121df90614288565b801561222c5780601f106122015761010080835404028352916020019161222c565b820191906000526020600020905b81548152906001019060200180831161220f57829003601f168201915b505050505082828151811061224457612243614d8d565b5b60200260200101819052506122a96040518060400160405280601781526020017f4e616d6520666f7220746f6b656e2025642069732025730000000000000000008152508284848151811061229c5761229b614d8d565b5b6020026020010151613299565b80806122b490614deb565b915050612185565b508091505090565b60008061231484848080601f016020809104026020016040519081016040528093929190818152602001838380828437600081840152601f19601f82011690508083019250505050505050612973565b90506003811161232f576706f05b59d3b20000915050612356565b600481141561234957670429d069189e0000915050612356565b67016345785d8a00009150505b92915050565b6123f48282604051602401612372929190614e34565b6040516020818303038152906040527f4b5c4277000000000000000000000000000000000000000000000000000000007bffffffffffffffffffffffffffffffffffffffffffffffffffffffff19166020820180517bffffffffffffffffffffffffffffffffffffffffffffffffffffffff8381831617835250505050613338565b5050565b60007f01ffc9a7000000000000000000000000000000000000000000000000000000007bffffffffffffffffffffffffffffffffffffffffffffffffffffffff1916827bffffffffffffffffffffffffffffffffffffffffffffffffffffffff1916149050919050565b60008073ffffffffffffffffffffffffffffffffffffffff166002600084815260200190815260200160002060009054906101000a900473ffffffffffffffffffffffffffffffffffffffff1673ffffffffffffffffffffffffffffffffffffffff1614159050919050565b600033905090565b816004600083815260200190815260200160002060006101000a81548173ffffffffffffffffffffffffffffffffffffffff021916908373ffffffffffffffffffffffffffffffffffffffff160217905550808273ffffffffffffffffffffffffffffffffffffffff166125498361120e565b73ffffffffffffffffffffffffffffffffffffffff167f8c5be1e5ebec7d5bd14f71427d1e84f3dd0314c0f7b2291e5b200ac8c7c3b92560405160405180910390a45050565b6126298383836040516024016125a793929190614e6b565b6040516020818303038152906040527f2ced7cef000000000000000000000000000000000000000000000000000000007bffffffffffffffffffffffffffffffffffffffffffffffffffffffff19166020820180517bffffffffffffffffffffffffffffffffffffffffffffffffffffffff8381831617835250505050613338565b505050565b600061263982612462565b612678576040517f08c379a000000000000000000000000000000000000000000000000000000000815260040161266f90614f29565b60405180910390fd5b60006126838361120e565b90508073ffffffffffffffffffffffffffffffffffffffff168473ffffffffffffffffffffffffffffffffffffffff1614806126f257508373ffffffffffffffffffffffffffffffffffffffff166126da846108bd565b73ffffffffffffffffffffffffffffffffffffffff16145b8061270357506127028185611c35565b5b91505092915050565b8273ffffffffffffffffffffffffffffffffffffffff1661272c8261120e565b73ffffffffffffffffffffffffffffffffffffffff1614612782576040517f08c379a000000000000000000000000000000000000000000000000000000000815260040161277990614fbb565b60405180910390fd5b600073ffffffffffffffffffffffffffffffffffffffff168273ffffffffffffffffffffffffffffffffffffffff1614156127f2576040517f08c379a00000000000000000000000000000000000000000000000000000000081526004016127e99061504d565b60405180910390fd5b6127fd838383613361565b6128086000826124d6565b6001600360008573ffffffffffffffffffffffffffffffffffffffff1673ffffffffffffffffffffffffffffffffffffffff1681526020019081526020016000206000828254612858919061506d565b925050819055506001600360008473ffffffffffffffffffffffffffffffffffffffff1673ffffffffffffffffffffffffffffffffffffffff16815260200190815260200160002060008282546128af91906150a1565b92505081905550816002600083815260200190815260200160002060006101000a81548173ffffffffffffffffffffffffffffffffffffffff021916908373ffffffffffffffffffffffffffffffffffffffff160217905550808273ffffffffffffffffffffffffffffffffffffffff168473ffffffffffffffffffffffffffffffffffffffff167fddf252ad1be2c89b69c2b068fc378daa952ba7f163c4a11628f55a4df523b3ef60405160405180910390a461296e838383613366565b505050565b60008060008084519050600092505b80821015612b1d57600085838151811061299f5761299e614d8d565b5b602001015160f81c60f81b9050608060f81b817effffffffffffffffffffffffffffffffffffffffffffffffffffffffffffff191610156129ee576001836129e791906150a1565b9250612b09565b60e060f81b817effffffffffffffffffffffffffffffffffffffffffffffffffffffffffffff19161015612a3057600283612a2991906150a1565b9250612b08565b60f060f81b817effffffffffffffffffffffffffffffffffffffffffffffffffffffffffffff19161015612a7257600383612a6b91906150a1565b9250612b07565b60f8801b817effffffffffffffffffffffffffffffffffffffffffffffffffffffffffffff19161015612ab357600483612aac91906150a1565b9250612b06565b60fc60f81b817effffffffffffffffffffffffffffffffffffffffffffffffffffffffffffff19161015612af557600583612aee91906150a1565b9250612b05565b600683612b0291906150a1565b92505b5b5b5b5b508280612b1590614deb565b935050612982565b829350505050919050565b8173ffffffffffffffffffffffffffffffffffffffff168373ffffffffffffffffffffffffffffffffffffffff161415612b97576040517f08c379a0000000000000000000000000000000000000000000000000000000008152600401612b8e90615143565b60405180910390fd5b80600560008573ffffffffffffffffffffffffffffffffffffffff1673ffffffffffffffffffffffffffffffffffffffff16815260200190815260200160002060008473ffffffffffffffffffffffffffffffffffffffff1673ffffffffffffffffffffffffffffffffffffffff16815260200190815260200160002060006101000a81548160ff0219169083151502179055508173ffffffffffffffffffffffffffffffffffffffff168373ffffffffffffffffffffffffffffffffffffffff167f17307eab39ab6107e8899845ad3d59bd9653f200f220920489ca2b5937696c3183604051612c889190613949565b60405180910390a3505050565b612ca084848461270c565b612cac8484848461336b565b612ceb576040517f08c379a0000000000000000000000000000000000000000000000000000000008152600401612ce2906151d5565b60405180910390fd5b50505050565b606060405180602001604052806000815250905090565b6060612d1382612462565b612d52576040517f08c379a0000000000000000000000000000000000000000000000000000000008152600401612d4990615267565b60405180910390fd5b6000612d5c612cf1565b90506000815111612d7c5760405180602001604052806000815250612da7565b80612d8684612dd3565b604051602001612d97929190614876565b6040516020818303038152906040525b915050919050565b6001816000016000828254019250508190555050565b600081600001549050919050565b60606000821415612e1b576040518060400160405280600181526020017f30000000000000000000000000000000000000000000000000000000000000008152509050612f2f565b600082905060005b60008214612e4d578080612e3690614deb565b915050600a82612e4691906152b6565b9150612e23565b60008167ffffffffffffffff811115612e6957612e68613f87565b5b6040519080825280601f01601f191660200182016040528015612e9b5781602001600182028036833780820191505090505b5090505b60008514612f2857600182612eb4919061506d565b9150600a85612ec391906152e7565b6030612ecf91906150a1565b60f81b818381518110612ee557612ee4614d8d565b5b60200101907effffffffffffffffffffffffffffffffffffffffffffffffffffffffffffff1916908160001a905350600a85612f2191906152b6565b9450612e9f565b8093505050505b919050565b60606000825190506000811415612f5d57604051806020016040528060008152509150506130c7565b60006003600283612f6e91906150a1565b612f7891906152b6565b6004612f849190615318565b90506000602082612f9591906150a1565b67ffffffffffffffff811115612fae57612fad613f87565b5b6040519080825280601f01601f191660200182016040528015612fe05781602001600182028036833780820191505090505b5090506000604051806060016040528060408152602001615729604091399050600181016020830160005b868110156130845760038101905062ffffff818a015116603f8160121c168401518060081b905060ff603f83600c1c1686015116810190508060081b905060ff603f8360061c1686015116810190508060081b905060ff603f831686015116810190508060e01b9050808452600484019350505061300b565b50600386066001811461309e57600281146130ae576130b9565b613d3d60f01b60028303526130b9565b603d60f81b60018303525b508484525050819450505050505b919050565b613162816040516024016130e091906139fd565b6040516020818303038152906040527f41304fac000000000000000000000000000000000000000000000000000000007bffffffffffffffffffffffffffffffffffffffffffffffffffffffff19166020820180517bffffffffffffffffffffffffffffffffffffffffffffffffffffffff8381831617835250505050613338565b50565b61317f8282604051806020016040528060008152506134f3565b5050565b61318c82612462565b6131cb576040517f08c379a00000000000000000000000000000000000000000000000000000000081526004016131c2906153e4565b60405180910390fd5b806006600084815260200190815260200160002090805190602001906131f29291906137f2565b505050565b613293848484846040516024016132119493929190615404565b6040516020818303038152906040527f8f624be9000000000000000000000000000000000000000000000000000000007bffffffffffffffffffffffffffffffffffffffffffffffffffffffff19166020820180517bffffffffffffffffffffffffffffffffffffffffffffffffffffffff8381831617835250505050613338565b50505050565b6133338383836040516024016132b193929190615457565b6040516020818303038152906040527fa3f5c739000000000000000000000000000000000000000000000000000000007bffffffffffffffffffffffffffffffffffffffffffffffffffffffff19166020820180517bffffffffffffffffffffffffffffffffffffffffffffffffffffffff8381831617835250505050613338565b505050565b60008151905060006a636f6e736f6c652e6c6f679050602083016000808483855afa5050505050565b505050565b505050565b600061338c8473ffffffffffffffffffffffffffffffffffffffff1661354e565b156134e6578373ffffffffffffffffffffffffffffffffffffffff1663150b7a026133b56124ce565b8786866040518563ffffffff1660e01b81526004016133d794939291906154f1565b6020604051808303816000875af192505050801561341357506040513d601f19601f820116820180604052508101906134109190615552565b60015b613496573d8060008114613443576040519150601f19603f3d011682016040523d82523d6000602084013e613448565b606091505b5060008151141561348e576040517f08c379a0000000000000000000000000000000000000000000000000000000008152600401613485906151d5565b60405180910390fd5b805181602001fd5b63150b7a0260e01b7bffffffffffffffffffffffffffffffffffffffffffffffffffffffff1916817bffffffffffffffffffffffffffffffffffffffffffffffffffffffff1916149150506134eb565b600190505b949350505050565b6134fd8383613571565b61350a600084848461336b565b613549576040517f08c379a0000000000000000000000000000000000000000000000000000000008152600401613540906151d5565b60405180910390fd5b505050565b6000808273ffffffffffffffffffffffffffffffffffffffff163b119050919050565b600073ffffffffffffffffffffffffffffffffffffffff168273ffffffffffffffffffffffffffffffffffffffff1614156135e1576040517f08c379a00000000000000000000000000000000000000000000000000000000081526004016135d8906155cb565b60405180910390fd5b6135ea81612462565b1561362a576040517f08c379a000000000000000000000000000000000000000000000000000000000815260040161362190615637565b60405180910390fd5b61363660008383613361565b6001600360008473ffffffffffffffffffffffffffffffffffffffff1673ffffffffffffffffffffffffffffffffffffffff168152602001908152602001600020600082825461368691906150a1565b92505081905550816002600083815260200190815260200160002060006101000a81548173ffffffffffffffffffffffffffffffffffffffff021916908373ffffffffffffffffffffffffffffffffffffffff160217905550808273ffffffffffffffffffffffffffffffffffffffff16600073ffffffffffffffffffffffffffffffffffffffff167fddf252ad1be2c89b69c2b068fc378daa952ba7f163c4a11628f55a4df523b3ef60405160405180910390a461374760008383613366565b5050565b60405180606001604052806060815260200160608152602001606081525090565b82805461377890614288565b90600052602060002090601f01602090048101928261379a57600085556137e1565b82601f106137b357803560ff19168380011785556137e1565b828001600101855582156137e1579182015b828111156137e05782358255916020019190600101906137c5565b5b5090506137ee9190613878565b5090565b8280546137fe90614288565b90600052602060002090601f0160209004810192826138205760008555613867565b82601f1061383957805160ff1916838001178555613867565b82800160010185558215613867579182015b8281111561386657825182559160200191906001019061384b565b5b5090506138749190613878565b5090565b5b80821115613891576000816000905550600101613879565b5090565b6000604051905090565b600080fd5b600080fd5b60007fffffffff0000000000000000000000000000000000000000000000000000000082169050919050565b6138de816138a9565b81146138e957600080fd5b50565b6000813590506138fb816138d5565b92915050565b6000602082840312156139175761391661389f565b5b6000613925848285016138ec565b91505092915050565b60008115159050919050565b6139438161392e565b82525050565b600060208201905061395e600083018461393a565b92915050565b600081519050919050565b600082825260208201905092915050565b60005b8381101561399e578082015181840152602081019050613983565b838111156139ad576000848401525b50505050565b6000601f19601f8301169050919050565b60006139cf82613964565b6139d9818561396f565b93506139e9818560208601613980565b6139f2816139b3565b840191505092915050565b60006020820190508181036000830152613a1781846139c4565b905092915050565b6000819050919050565b613a3281613a1f565b8114613a3d57600080fd5b50565b600081359050613a4f81613a29565b92915050565b600060208284031215613a6b57613a6a61389f565b5b6000613a7984828501613a40565b91505092915050565b600073ffffffffffffffffffffffffffffffffffffffff82169050919050565b6000613aad82613a82565b9050919050565b613abd81613aa2565b82525050565b6000602082019050613ad86000830184613ab4565b92915050565b613ae781613aa2565b8114613af257600080fd5b50565b600081359050613b0481613ade565b92915050565b60008060408385031215613b2157613b2061389f565b5b6000613b2f85828601613af5565b9250506020613b4085828601613a40565b9150509250929050565b600080fd5b600080fd5b600080fd5b60008083601f840112613b6f57613b6e613b4a565b5b8235905067ffffffffffffffff811115613b8c57613b8b613b4f565b5b602083019150836001820283011115613ba857613ba7613b54565b5b9250929050565b60008060208385031215613bc657613bc561389f565b5b600083013567ffffffffffffffff811115613be457613be36138a4565b5b613bf085828601613b59565b92509250509250929050565b600082825260208201905092915050565b6000613c1882613964565b613c228185613bfc565b9350613c32818560208601613980565b613c3b816139b3565b840191505092915050565b60006060830160008301518482036000860152613c638282613c0d565b91505060208301518482036020860152613c7d8282613c0d565b91505060408301518482036040860152613c978282613c0d565b9150508091505092915050565b60006020820190508181036000830152613cbe8184613c46565b905092915050565b60008060008060408587031215613ce057613cdf61389f565b5b600085013567ffffffffffffffff811115613cfe57613cfd6138a4565b5b613d0a87828801613b59565b9450945050602085013567ffffffffffffffff811115613d2d57613d2c6138a4565b5b613d3987828801613b59565b925092505092959194509250565b600080600060608486031215613d6057613d5f61389f565b5b6000613d6e86828701613af5565b9350506020613d7f86828701613af5565b9250506040613d9086828701613a40565b9150509250925092565b613da381613a1f565b82525050565b6000602082019050613dbe6000830184613d9a565b92915050565b600060208284031215613dda57613dd961389f565b5b6000613de884828501613af5565b91505092915050565b6000613dfc82613a82565b9050919050565b613e0c81613df1565b82525050565b6000602082019050613e276000830184613e03565b92915050565b613e368161392e565b8114613e4157600080fd5b50565b600081359050613e5381613e2d565b92915050565b60008060408385031215613e7057613e6f61389f565b5b6000613e7e85828601613af5565b9250506020613e8f85828601613e44565b9150509250929050565b6000806000806000806000806080898b031215613eb957613eb861389f565b5b600089013567ffffffffffffffff811115613ed757613ed66138a4565b5b613ee38b828c01613b59565b9850985050602089013567ffffffffffffffff811115613f0657613f056138a4565b5b613f128b828c01613b59565b9650965050604089013567ffffffffffffffff811115613f3557613f346138a4565b5b613f418b828c01613b59565b9450945050606089013567ffffffffffffffff811115613f6457613f636138a4565b5b613f708b828c01613b59565b92509250509295985092959890939650565b600080fd5b7f4e487b7100000000000000000000000000000000000000000000000000000000600052604160045260246000fd5b613fbf826139b3565b810181811067ffffffffffffffff82111715613fde57613fdd613f87565b5b80604052505050565b6000613ff1613895565b9050613ffd8282613fb6565b919050565b600067ffffffffffffffff82111561401d5761401c613f87565b5b614026826139b3565b9050602081019050919050565b82818337600083830152505050565b600061405561405084614002565b613fe7565b90508281526020810184848401111561407157614070613f82565b5b61407c848285614033565b509392505050565b600082601f83011261409957614098613b4a565b5b81356140a9848260208601614042565b91505092915050565b600080600080608085870312156140cc576140cb61389f565b5b60006140da87828801613af5565b94505060206140eb87828801613af5565b93505060406140fc87828801613a40565b925050606085013567ffffffffffffffff81111561411d5761411c6138a4565b5b61412987828801614084565b91505092959194509250565b6000806040838503121561414c5761414b61389f565b5b600061415a85828601613af5565b925050602061416b85828601613af5565b9150509250929050565b600081519050919050565b600082825260208201905092915050565b6000819050602082019050919050565b60006141ad8383613c0d565b905092915050565b6000602082019050919050565b60006141cd82614175565b6141d78185614180565b9350836020820285016141e985614191565b8060005b85811015614225578484038952815161420685826141a1565b9450614211836141b5565b925060208a019950506001810190506141ed565b50829750879550505050505092915050565b6000602082019050818103600083015261425181846141c2565b905092915050565b7f4e487b7100000000000000000000000000000000000000000000000000000000600052602260045260246000fd5b600060028204905060018216806142a057607f821691505b602082108114156142b4576142b3614259565b5b50919050565b7f4552433732313a20617070726f76656420717565727920666f72206e6f6e657860008201527f697374656e7420746f6b656e0000000000000000000000000000000000000000602082015250565b6000614316602c8361396f565b9150614321826142ba565b604082019050919050565b6000602082019050818103600083015261434581614309565b9050919050565b7f4552433732313a20617070726f76616c20746f2063757272656e74206f776e6560008201527f7200000000000000000000000000000000000000000000000000000000000000602082015250565b60006143a860218361396f565b91506143b38261434c565b604082019050919050565b600060208201905081810360008301526143d78161439b565b9050919050565b7f4552433732313a20617070726f76652063616c6c6572206973206e6f74206f7760008201527f6e6572206e6f7220617070726f76656420666f7220616c6c0000000000000000602082015250565b600061443a60388361396f565b9150614445826143de565b604082019050919050565b600060208201905081810360008301526144698161442d565b9050919050565b600081905092915050565b60006144878385614470565b9350614494838584614033565b82840190509392505050565b60006144ad82848661447b565b91508190509392505050565b7f596f75277265206e6f7420746865206f776e6572206f662074686520646f6d6160008201527f696e000000000000000000000000000000000000000000000000000000000000602082015250565b600061451560228361396f565b9150614520826144b9565b604082019050919050565b6000602082019050818103600083015261454481614508565b9050919050565b7f4552433732313a207472616e736665722063616c6c6572206973206e6f74206f60008201527f776e6572206e6f7220617070726f766564000000000000000000000000000000602082015250565b60006145a760318361396f565b91506145b28261454b565b604082019050919050565b600060208201905081810360008301526145d68161459a565b9050919050565b600081905092915050565b50565b60006145f86000836145dd565b9150614603826145e8565b600082019050919050565b6000614619826145eb565b9150819050919050565b7f4661696c656420746f207769746864726177204d617469630000000000000000600082015250565b600061465960188361396f565b915061466482614623565b602082019050919050565b600060208201905081810360008301526146888161464c565b9050919050565b7f4552433732313a206f776e657220717565727920666f72206e6f6e657869737460008201527f656e7420746f6b656e0000000000000000000000000000000000000000000000602082015250565b60006146eb60298361396f565b91506146f68261468f565b604082019050919050565b6000602082019050818103600083015261471a816146de565b9050919050565b7f4552433732313a2062616c616e636520717565727920666f7220746865207a6560008201527f726f206164647265737300000000000000000000000000000000000000000000602082015250565b600061477d602a8361396f565b915061478882614721565b604082019050919050565b600060208201905081810360008301526147ac81614770565b9050919050565b7f45524337323155524953746f726167653a2055524920717565727920666f722060008201527f6e6f6e6578697374656e7420746f6b656e000000000000000000000000000000602082015250565b600061480f60318361396f565b915061481a826147b3565b604082019050919050565b6000602082019050818103600083015261483e81614802565b9050919050565b600061485082613964565b61485a8185614470565b935061486a818560208601613980565b80840191505092915050565b60006148828285614845565b915061488e8284614845565b91508190509392505050565b7f446f6d61696e20697320616c7265616479207265676973746572656400000000600082015250565b60006148d0601c8361396f565b91506148db8261489a565b602082019050919050565b600060208201905081810360008301526148ff816148c3565b9050919050565b7f446f6d61696e206e616d65206d757374206265206265747765656e203120616e60008201527f6420313520636861726163746572730000000000000000000000000000000000602082015250565b6000614962602f8361396f565b915061496d82614906565b604082019050919050565b6000602082019050818103600083015261499181614955565b9050919050565b7f4e6f7420656e6f756768204d4154494320706169640000000000000000000000600082015250565b60006149ce60158361396f565b91506149d982614998565b602082019050919050565b600060208201905081810360008301526149fd816149c1565b9050919050565b7f2e00000000000000000000000000000000000000000000000000000000000000600082015250565b6000614a3a600183614470565b9150614a4582614a04565b600182019050919050565b60008190508160005260206000209050919050565b60008154614a7281614288565b614a7c8186614470565b94506001821660008114614a975760018114614aa857614adb565b60ff19831686528186019350614adb565b614ab185614a50565b60005b83811015614ad357815481890152600182019150602081019050614ab4565b838801955050505b50505092915050565b6000614af182858761447b565b9150614afc82614a2d565b9150614b088284614a65565b9150819050949350505050565b6000614b218286614a65565b9150614b2d8285614845565b9150614b398284614a65565b9150819050949350505050565b7f7b226e616d65223a202200000000000000000000000000000000000000000000600082015250565b6000614b7c600a83614470565b9150614b8782614b46565b600a82019050919050565b7f222c20226465736372697074696f6e223a20224120646f6d61696e206f6e207460008201527f68652049626973206e616d652073657276696365222c2022696d616765223a2060208201527f22646174613a696d6167652f7376672b786d6c3b6261736536342c0000000000604082015250565b6000614c14605b83614470565b9150614c1f82614b92565b605b82019050919050565b7f222c226c656e677468223a220000000000000000000000000000000000000000600082015250565b6000614c60600c83614470565b9150614c6b82614c2a565b600c82019050919050565b7f227d000000000000000000000000000000000000000000000000000000000000600082015250565b6000614cac600283614470565b9150614cb782614c76565b600282019050919050565b6000614ccd82614b6f565b9150614cd98286614845565b9150614ce482614c07565b9150614cf08285614845565b9150614cfb82614c53565b9150614d078284614845565b9150614d1282614c9f565b9150819050949350505050565b7f646174613a6170706c69636174696f6e2f6a736f6e3b6261736536342c000000600082015250565b6000614d55601d83614470565b9150614d6082614d1f565b601d82019050919050565b6000614d7682614d48565b9150614d828284614845565b915081905092915050565b7f4e487b7100000000000000000000000000000000000000000000000000000000600052603260045260246000fd5b7f4e487b7100000000000000000000000000000000000000000000000000000000600052601160045260246000fd5b6000614df682613a1f565b91507fffffffffffffffffffffffffffffffffffffffffffffffffffffffffffffffff821415614e2957614e28614dbc565b5b600182019050919050565b60006040820190508181036000830152614e4e81856139c4565b90508181036020830152614e6281846139c4565b90509392505050565b60006060820190508181036000830152614e8581866139c4565b90508181036020830152614e9981856139c4565b90508181036040830152614ead81846139c4565b9050949350505050565b7f4552433732313a206f70657261746f7220717565727920666f72206e6f6e657860008201527f697374656e7420746f6b656e0000000000000000000000000000000000000000602082015250565b6000614f13602c8361396f565b9150614f1e82614eb7565b604082019050919050565b60006020820190508181036000830152614f4281614f06565b9050919050565b7f4552433732313a207472616e736665722066726f6d20696e636f72726563742060008201527f6f776e6572000000000000000000000000000000000000000000000000000000602082015250565b6000614fa560258361396f565b9150614fb082614f49565b604082019050919050565b60006020820190508181036000830152614fd481614f98565b9050919050565b7f4552433732313a207472616e7366657220746f20746865207a65726f2061646460008201527f7265737300000000000000000000000000000000000000000000000000000000602082015250565b600061503760248361396f565b915061504282614fdb565b604082019050919050565b600060208201905081810360008301526150668161502a565b9050919050565b600061507882613a1f565b915061508383613a1f565b92508282101561509657615095614dbc565b5b828203905092915050565b60006150ac82613a1f565b91506150b783613a1f565b9250827fffffffffffffffffffffffffffffffffffffffffffffffffffffffffffffffff038211156150ec576150eb614dbc565b5b828201905092915050565b7f4552433732313a20617070726f766520746f2063616c6c657200000000000000600082015250565b600061512d60198361396f565b9150615138826150f7565b602082019050919050565b6000602082019050818103600083015261515c81615120565b9050919050565b7f4552433732313a207472616e7366657220746f206e6f6e20455243373231526560008201527f63656976657220696d706c656d656e7465720000000000000000000000000000602082015250565b60006151bf60328361396f565b91506151ca82615163565b604082019050919050565b600060208201905081810360008301526151ee816151b2565b9050919050565b7f4552433732314d657461646174613a2055524920717565727920666f72206e6f60008201527f6e6578697374656e7420746f6b656e0000000000000000000000000000000000602082015250565b6000615251602f8361396f565b915061525c826151f5565b604082019050919050565b6000602082019050818103600083015261528081615244565b9050919050565b7f4e487b7100000000000000000000000000000000000000000000000000000000600052601260045260246000fd5b60006152c182613a1f565b91506152cc83613a1f565b9250826152dc576152db615287565b5b828204905092915050565b60006152f282613a1f565b91506152fd83613a1f565b92508261530d5761530c615287565b5b828206905092915050565b600061532382613a1f565b915061532e83613a1f565b9250817fffffffffffffffffffffffffffffffffffffffffffffffffffffffffffffffff048311821515161561536757615366614dbc565b5b828202905092915050565b7f45524337323155524953746f726167653a2055524920736574206f66206e6f6e60008201527f6578697374656e7420746f6b656e000000000000000000000000000000000000602082015250565b60006153ce602e8361396f565b91506153d982615372565b604082019050919050565b600060208201905081810360008301526153fd816153c1565b9050919050565b6000608082019050818103600083015261541e81876139c4565b905061542d6020830186613ab4565b818103604083015261543f81856139c4565b905061544e6060830184613d9a565b95945050505050565b6000606082019050818103600083015261547181866139c4565b90506154806020830185613d9a565b818103604083015261549281846139c4565b9050949350505050565b600081519050919050565b600082825260208201905092915050565b60006154c38261549c565b6154cd81856154a7565b93506154dd818560208601613980565b6154e6816139b3565b840191505092915050565b60006080820190506155066000830187613ab4565b6155136020830186613ab4565b6155206040830185613d9a565b818103606083015261553281846154b8565b905095945050505050565b60008151905061554c816138d5565b92915050565b6000602082840312156155685761556761389f565b5b60006155768482850161553d565b91505092915050565b7f4552433732313a206d696e7420746f20746865207a65726f2061646472657373600082015250565b60006155b560208361396f565b91506155c08261557f565b602082019050919050565b600060208201905081810360008301526155e4816155a8565b9050919050565b7f4552433732313a20746f6b656e20616c7265616479206d696e74656400000000600082015250565b6000615621601c8361396f565b915061562c826155eb565b602082019050919050565b6000602082019050818103600083015261565081615614565b905091905056fe0a2d2d2d2d2d2d2d2d2d2d2d2d2d2d2d2d2d2d2d2d2d2d2d2d2d2d2d2d2d2d2d2d2d2d2d2d2d2d2d2d2d2d2d2d2d2d2d2d2d2d2d2d2d2d2d2d53657474696e672053706f74696679204c696e6b207265636f726420746f20257320666f7220646f6d61696e2025732d2d2d2d2d2d2d2d2d2d2d2d2d2d2d2d2d2d2d2d2d2d2d2d2d2d2d2d2d2d2d2d2d2d2d2d2d2d2d2d2d2d2d2d2d2d2d2d2d2d2d2d2d2d2d2d0a25732068617320726567697374657265642074686520646f6d61696e202573207769746820746f6b656e2049442025644142434445464748494a4b4c4d4e4f505152535455565758595a6162636465666768696a6b6c6d6e6f707172737475767778797a303132333435363738392b2f53657474696e672054776974746572207265636f726420746f20257320666f7220646f6d61696e20257353657474696e67206e69636b6e616d65207265636f726420746f20257320666f7220646f6d61696e202573a2646970667358221220b835c6b3d4888487d129270998f9ac93fa026ff2f9eeac49f29a507fdf53f78964736f6c634300080a00333c73766720786d6c6e733d22687474703a2f2f7777772e77332e6f72672f323030302f737667222077696474683d2232373022206865696768743d22323730222066696c6c3d226e6f6e65223e3c706174682066696c6c3d2275726c282361292220643d224d302030683237307632373048307a222f3e3c646566733e3c66696c7465722069643d22622220636f6c6f722d696e746572706f6c6174696f6e2d66696c746572733d2273524742222066696c746572556e6974733d227573657253706163654f6e55736522206865696768743d22323730222077696474683d22323730223e3c666544726f70536861646f772064783d2230222064793d22312220737464446576696174696f6e3d22322220666c6f6f642d6f7061636974793d222e323235222077696474683d223230302522206865696768743d2232303025222f3e3c2f66696c7465723e3c2f646566733e3c67207472616e73666f726d3d227472616e736c61746528323020323529223e3c672066696c6c3d2223666639643237223e3c7061746820643d224d31302e392034382e3763342d3420342e342d3520362e392d322e3573312e3520322e382d322e3520362e39632d3320332d362e3820322e342d362e3820322e34732d2e362d332e3820322e342d362e38222f3e3c7061746820643d224d31382e352035322e3863312e362d342e3220322e312d342e372d2e322d362d322e332d312e332d322e332d2e342d332e3820332e382d312e3220332e312e3220352e392e3220352e3973322e372d2e3520332e382d332e37222f3e3c2f673e3c7061746820643d224d31362e322034382e39632e392d322e332e392d322e3820322e312d322e3120312e332e3720312031202e3120332e332d2e3620312e372d322e3120322e312d322e3120322e31732d2e372d312e352d2e312d332e33222066696c6c3d2223666466353136222f3e3c7061746820643d224d31372e312034352e37632d312e332d322e332d312e382d312e382d362d2e322d332e3120312e322d332e3720332e382d332e3720332e3873322e3820312e3420352e392e3263342e322d312e3620352e312d312e3620332e382d332e38222066696c6c3d2223666639643237222f3e3c672066696c6c3d2223666466353136223e3c7061746820643d224d31352034372e3863322e332d2e3920322e382d2e3920322e312d322e312d2e372d312e332d312d312d332e332d2e312d312e372e362d322e3120322e312d322e3120322e3173312e362e3720332e332e31222f3e3c7061746820643d224d31332e392034372e3663322e322d322e3220322e342d322e3820332e382d312e34732e3820312e362d312e3420332e38632d312e3720312e372d332e3820312e332d332e3820312e33732d2e322d3220312e342d332e37222f3e3c2f673e3c7061746820643d224d31382e352033384331322e332032372e3620322033312e3920322033312e397331342e372d31342e372032342e362d342e384c31382e352033387a222066696c6c3d2223336261616366222f3e3c7061746820643d226d32332e332033302e3320332e322d332e324331362e372031372e3220322033312e3920322033312e397331322e392d392e322032312e332d312e36222066696c6c3d2223343238626331222f3e3c7061746820643d224d32362034352e354333362e342035312e372033322e312036322033322e312036327331342e372d31342e3720342e382d32342e364c32362034352e357a222066696c6c3d2223336261616366222f3e3c7061746820643d226d33332e372034302e3720332e322d332e3263392e3920392e392d342e382032342e362d342e382032342e3673392e322d313320312e362d32312e34222066696c6c3d2223343238626331222f3e3c7061746820643d224d34382e382033302e394333372e312034322e352032342e322034382e382031392e372034342e33632d342e352d342e3520312e382d31372e342031332e342d32392e312031332e362d31332e362032382e372d31332032382e372d3133732e352031352e312d31332032382e37222066696c6c3d2223633564306438222f3e3c7061746820643d224d34352e382032372e364333342e322033392e322032322e362034362e382031392e392034342e31632d322e372d322e3720342e392d31342e332031362e352d32352e3943353020342e3620363220322036322032732d322e362031322d31362e322032352e367a222066696c6c3d2223646165336561222f3e3c7061746820643d224d32342e332034372e35632d2e352e352d312e332e352d312e3820306c2d362d36632d2e352d2e352d2e352d312e3420302d312e396c312e382d312e3820372e3820372e382d312e3820312e39222066696c6c3d2223633934373437222f3e3c7061746820643d224d32322e362034352e37632d2e352e352d312e312e372d312e342e346c2d332e342d332e34632d2e332d2e332d2e312d2e392e342d312e346c312e382d312e3820342e3420342e342d312e3820312e38222066696c6c3d2223663135373434222f3e3c7061746820643d224d32302e392034382e32632d2e332e332d31202e332d312e3320306c2d332e392d332e39632d2e332d2e332d2e322d2e392e312d312e326c312e322d312e3220352e3120352e312d312e3220312e32222066696c6c3d2223336534333437222f3e3c7061746820643d224d32302e312034372e34632d2e332e332d2e392e342d312e312e326c2d322e372d322e37632d2e322d2e322d2e312d2e372e332d316c312e322d312e3220332e3520332e352d312e3220312e32222066696c6c3d2223363237323761222f3e3c7061746820643d224d36312e3820322e325335362e3420322034392e3120342e386c31302e312031302e3143363220372e362036312e3820322e322036312e3820322e32222066696c6c3d2223633934373437222f3e3c7061746820643d224d36312e3820322e32732d342e332e392d31302e3820342e366c362e3220362e3263332e372d362e3520342e362d31302e3820342e362d31302e38222066696c6c3d2223663135373434222f3e3c636972636c652063783d2234332e35222063793d2232302e352220723d2235222066696c6c3d2223656466346639222f3e3c636972636c652063783d2234332e35222063793d2232302e352220723d22332e33222066696c6c3d2223336261616366222f3e3c636972636c652063783d2233332e35222063793d2233302e352220723d2235222066696c6c3d2223656466346639222f3e3c636972636c652063783d2233332e35222063793d2233302e352220723d22332e33222066696c6c3d2223336261616366222f3e3c672066696c6c3d2223666666223e3c7061746820643d224d34382e3920362e39632d2e332e332d2e392e332d312e3220302d2e332d2e332d2e332d2e3920302d312e322e332d2e332e392d2e3320312e322030202e332e332e332e39203020312e32222f3e3c636972636c652063783d2235302e36222063793d22382e362220723d222e38222f3e3c636972636c652063783d223533222063793d2231312220723d222e38222f3e3c636972636c652063783d2235352e33222063793d2231332e342220723d222e38222f3e3c636972636c652063783d2235372e37222063793d2231352e372220723d222e38222f3e3c2f673e3c2f673e3c646566733e3c6c696e6561724772616469656e742069643d2261222078313d2230222079313d2230222078323d22323730222079323d2232373022206772616469656e74556e6974733d227573657253706163654f6e557365223e3c73746f702073746f702d636f6c6f723d2223313131646466222f3e3c73746f70206f66667365743d2231222073746f702d636f6c6f723d2223306364376534222073746f702d6f7061636974793d222e3939222f3e3c2f6c696e6561724772616469656e743e3c2f646566733e3c7465787420783d2233322e352220793d223233312220666f6e742d73697a653d223237222066696c6c3d2223666666222066696c7465723d2275726c282362292220666f6e742d66616d696c793d22506c7573204a616b617274612053616e732c44656a6156752053616e732c4e6f746f20436f6c6f7220456d6f6a692c4170706c6520436f6c6f7220456d6f6a692c73616e732d73657269662220666f6e742d7765696768743d22626f6c64223e2e257320646f6d61696e207365727669636520636f6e7472616374206465706c6f796564",
  "linkReferences": {},
  "deployedLinkReferences": {}
}